{
  "contractName": "GovernanceVoting",
  "abi": [
    {
      "inputs": [
        {
          "internalType": "string",
          "name": "_electionName",
          "type": "string"
        },
        {
          "internalType": "string[]",
          "name": "proposalTitles",
          "type": "string[]"
        }
      ],
      "stateMutability": "nonpayable",
      "type": "constructor"
    },
    {
      "anonymous": false,
      "inputs": [
        {
          "indexed": false,
          "internalType": "string",
          "name": "name",
          "type": "string"
        },
        {
          "indexed": false,
          "internalType": "address",
          "name": "admin",
          "type": "address"
        }
      ],
      "name": "ElectionCreated",
      "type": "event"
    },
    {
      "anonymous": false,
      "inputs": [
        {
          "indexed": true,
          "internalType": "uint256",
          "name": "proposalId",
          "type": "uint256"
        },
        {
          "indexed": false,
          "internalType": "string",
          "name": "title",
          "type": "string"
        }
      ],
      "name": "ProposalAdded",
      "type": "event"
    },
    {
      "anonymous": false,
      "inputs": [
        {
          "indexed": true,
          "internalType": "address",
          "name": "from",
          "type": "address"
        },
        {
          "indexed": true,
          "internalType": "address",
          "name": "to",
          "type": "address"
        },
        {
          "indexed": false,
          "internalType": "uint256",
          "name": "weight",
          "type": "uint256"
        }
      ],
      "name": "VoteDelegated",
      "type": "event"
    },
    {
      "anonymous": false,
      "inputs": [
        {
          "indexed": true,
          "internalType": "address",
          "name": "account",
          "type": "address"
        },
        {
          "indexed": true,
          "internalType": "uint256",
          "name": "proposalId",
          "type": "uint256"
        },
        {
          "indexed": false,
          "internalType": "uint256",
          "name": "quadraticVotes",
          "type": "uint256"
        },
        {
          "indexed": false,
          "internalType": "uint256",
          "name": "rawWeight",
          "type": "uint256"
        }
      ],
      "name": "Voted",
      "type": "event"
    },
    {
      "anonymous": false,
      "inputs": [
        {
          "indexed": true,
          "internalType": "address",
          "name": "account",
          "type": "address"
        },
        {
          "indexed": false,
          "internalType": "uint256",
          "name": "weight",
          "type": "uint256"
        }
      ],
      "name": "VoterWhitelisted",
      "type": "event"
    },
    {
      "anonymous": false,
      "inputs": [
        {
          "indexed": false,
          "internalType": "uint256",
          "name": "winningProposalId",
          "type": "uint256"
        },
        {
          "indexed": false,
          "internalType": "string",
          "name": "winningTitle",
          "type": "string"
        }
      ],
      "name": "VotingEnded",
      "type": "event"
    },
    {
      "anonymous": false,
      "inputs": [
        {
          "indexed": false,
          "internalType": "uint256",
          "name": "startTime",
          "type": "uint256"
        },
        {
          "indexed": false,
          "internalType": "uint256",
          "name": "endTime",
          "type": "uint256"
        }
      ],
      "name": "VotingStarted",
      "type": "event"
    },
    {
      "inputs": [],
      "name": "admin",
      "outputs": [
        {
          "internalType": "address",
          "name": "",
          "type": "address"
        }
      ],
      "stateMutability": "view",
      "type": "function",
      "constant": true
    },
    {
      "inputs": [],
      "name": "electionName",
      "outputs": [
        {
          "internalType": "string",
          "name": "",
          "type": "string"
        }
      ],
      "stateMutability": "view",
      "type": "function",
      "constant": true
    },
    {
      "inputs": [],
      "name": "phase",
      "outputs": [
        {
          "internalType": "enum GovernanceVoting.Phase",
          "name": "",
          "type": "uint8"
        }
      ],
      "stateMutability": "view",
      "type": "function",
      "constant": true
    },
    {
      "inputs": [],
      "name": "votingEndTime",
      "outputs": [
        {
          "internalType": "uint256",
          "name": "",
          "type": "uint256"
        }
      ],
      "stateMutability": "view",
      "type": "function",
      "constant": true
    },
    {
      "inputs": [],
      "name": "votingStartTime",
      "outputs": [
        {
          "internalType": "uint256",
          "name": "",
          "type": "uint256"
        }
      ],
      "stateMutability": "view",
      "type": "function",
      "constant": true
    },
    {
      "inputs": [],
      "name": "proposalCount",
      "outputs": [
        {
          "internalType": "uint256",
          "name": "",
          "type": "uint256"
        }
      ],
      "stateMutability": "view",
      "type": "function",
      "constant": true
    },
    {
      "inputs": [
        {
          "internalType": "uint256",
          "name": "proposalId",
          "type": "uint256"
        }
      ],
      "name": "getProposal",
      "outputs": [
        {
          "internalType": "string",
          "name": "title",
          "type": "string"
        },
        {
          "internalType": "string",
          "name": "description",
          "type": "string"
        },
        {
          "internalType": "uint256",
          "name": "quadraticVotes",
          "type": "uint256"
        },
        {
          "internalType": "uint256",
          "name": "rawVotes",
          "type": "uint256"
        }
      ],
      "stateMutability": "view",
      "type": "function",
      "constant": true
    },
    {
      "inputs": [
        {
          "internalType": "address",
          "name": "account",
          "type": "address"
        }
      ],
      "name": "getVoter",
      "outputs": [
        {
          "internalType": "bool",
          "name": "whitelisted",
          "type": "bool"
        },
        {
          "internalType": "uint256",
          "name": "weight",
          "type": "uint256"
        },
        {
          "internalType": "bool",
          "name": "voted",
          "type": "bool"
        },
        {
          "internalType": "uint256",
          "name": "votedProposalId",
          "type": "uint256"
        },
        {
          "internalType": "address",
          "name": "delegateAddress",
          "type": "address"
        },
        {
          "internalType": "uint256",
          "name": "delegatedWeight",
          "type": "uint256"
        },
        {
          "internalType": "uint256",
          "name": "totalVotingPower",
          "type": "uint256"
        }
      ],
      "stateMutability": "view",
      "type": "function",
      "constant": true
    },
    {
      "inputs": [],
      "name": "getTimeInfo",
      "outputs": [
        {
          "internalType": "uint256",
          "name": "currentTime",
          "type": "uint256"
        },
        {
          "internalType": "uint256",
          "name": "startTime",
          "type": "uint256"
        },
        {
          "internalType": "uint256",
          "name": "endTime",
          "type": "uint256"
        },
        {
          "internalType": "bool",
          "name": "isVotingActive",
          "type": "bool"
        }
      ],
      "stateMutability": "view",
      "type": "function",
      "constant": true
    },
    {
      "inputs": [],
      "name": "getVoterCount",
      "outputs": [
        {
          "internalType": "uint256",
          "name": "",
          "type": "uint256"
        }
      ],
      "stateMutability": "view",
      "type": "function",
      "constant": true
    },
    {
      "inputs": [
        {
          "internalType": "uint256",
          "name": "weight",
          "type": "uint256"
        }
      ],
      "name": "calculateQuadraticVotes",
      "outputs": [
        {
          "internalType": "uint256",
          "name": "",
          "type": "uint256"
        }
      ],
      "stateMutability": "pure",
      "type": "function",
      "constant": true
    },
    {
      "inputs": [
        {
          "internalType": "string",
          "name": "title",
          "type": "string"
        },
        {
          "internalType": "string",
          "name": "description",
          "type": "string"
        }
      ],
      "name": "addProposal",
      "outputs": [],
      "stateMutability": "nonpayable",
      "type": "function"
    },
    {
      "inputs": [
        {
          "internalType": "address",
          "name": "account",
          "type": "address"
        },
        {
          "internalType": "uint256",
          "name": "weight",
          "type": "uint256"
        }
      ],
      "name": "whitelistVoter",
      "outputs": [],
      "stateMutability": "nonpayable",
      "type": "function"
    },
    {
      "inputs": [
        {
          "internalType": "uint256",
          "name": "durationInMinutes",
          "type": "uint256"
        }
      ],
      "name": "startVoting",
      "outputs": [],
      "stateMutability": "nonpayable",
      "type": "function"
    },
    {
      "inputs": [],
      "name": "closeVoting",
      "outputs": [],
      "stateMutability": "nonpayable",
      "type": "function"
    },
    {
      "inputs": [],
      "name": "finalizeIfExpired",
      "outputs": [],
      "stateMutability": "nonpayable",
      "type": "function"
    },
    {
      "inputs": [
        {
          "internalType": "address",
          "name": "to",
          "type": "address"
        }
      ],
      "name": "delegate",
      "outputs": [],
      "stateMutability": "nonpayable",
      "type": "function"
    },
    {
      "inputs": [],
      "name": "removeDelegate",
      "outputs": [],
      "stateMutability": "nonpayable",
      "type": "function"
    },
    {
      "inputs": [
        {
          "internalType": "uint256",
          "name": "proposalId",
          "type": "uint256"
        }
      ],
      "name": "vote",
      "outputs": [],
      "stateMutability": "nonpayable",
      "type": "function"
    },
    {
      "inputs": [],
      "name": "winningProposal",
      "outputs": [
        {
          "internalType": "uint256",
          "name": "proposalId",
          "type": "uint256"
        },
        {
          "internalType": "string",
          "name": "title",
          "type": "string"
        },
        {
          "internalType": "uint256",
          "name": "quadraticVotes",
          "type": "uint256"
        },
        {
          "internalType": "uint256",
          "name": "rawVotes",
          "type": "uint256"
        }
      ],
      "stateMutability": "view",
      "type": "function",
      "constant": true
    },
    {
      "inputs": [],
      "name": "getAllResults",
      "outputs": [
        {
          "internalType": "string[]",
          "name": "titles",
          "type": "string[]"
        },
        {
          "internalType": "uint256[]",
          "name": "quadraticVotes",
          "type": "uint256[]"
        },
        {
          "internalType": "uint256[]",
          "name": "rawVotes",
          "type": "uint256[]"
        }
      ],
      "stateMutability": "view",
      "type": "function",
      "constant": true
    }
  ],
  "bytecode": "0x60a06040523480156200001157600080fd5b50604051620043ac380380620043ac8339818101604052810190620000379190620005da565b3373ffffffffffffffffffffffffffffffffffffffff1660808173ffffffffffffffffffffffffffffffffffffffff168152505081600090805190602001906200008392919062000291565b506000600160006101000a81548160ff02191690836002811115620000ad57620000ac6200065f565b5b021790555060005b81518110156200011357620000fd828281518110620000d957620000d86200068e565b5b6020026020010151604051806020016040528060008152506200015760201b60201c565b80806200010a90620006f6565b915050620000b5565b507f979868a6ec4b771cce59fb848a1eb0e1dcca4c2215a7fdf8bd593ecf860b0cd6823360405162000147929190620007e6565b60405180910390a1505062000950565b60008251116200019e576040517f08c379a000000000000000000000000000000000000000000000000000000000815260040162000195906200086a565b60405180910390fd5b60046040518060800160405280848152602001838152602001600081526020016000815250908060018154018082558091505060019003906000526020600020906004020160009091909190915060008201518160000190805190602001906200020a92919062000291565b5060208201518160010190805190602001906200022992919062000291565b506040820151816002015560608201518160030155505060016004805490506200025491906200088c565b7ff970aa486598017b8116c2beb18c50d4584ecbc3c688817f59b26796725f31bf83604051620002859190620008c7565b60405180910390a25050565b8280546200029f906200091a565b90600052602060002090601f016020900481019282620002c357600085556200030f565b82601f10620002de57805160ff19168380011785556200030f565b828001600101855582156200030f579182015b828111156200030e578251825591602001919060010190620002f1565b5b5090506200031e919062000322565b5090565b5b808211156200033d57600081600090555060010162000323565b5090565b6000604051905090565b600080fd5b600080fd5b600080fd5b600080fd5b6000601f19601f8301169050919050565b7f4e487b7100000000000000000000000000000000000000000000000000000000600052604160045260246000fd5b620003aa826200035f565b810181811067ffffffffffffffff82111715620003cc57620003cb62000370565b5b80604052505050565b6000620003e162000341565b9050620003ef82826200039f565b919050565b600067ffffffffffffffff82111562000412576200041162000370565b5b6200041d826200035f565b9050602081019050919050565b60005b838110156200044a5780820151818401526020810190506200042d565b838111156200045a576000848401525b50505050565b6000620004776200047184620003f4565b620003d5565b9050828152602081018484840111156200049657620004956200035a565b5b620004a38482856200042a565b509392505050565b600082601f830112620004c357620004c262000355565b5b8151620004d584826020860162000460565b91505092915050565b600067ffffffffffffffff821115620004fc57620004fb62000370565b5b602082029050602081019050919050565b600080fd5b6000620005296200052384620004de565b620003d5565b905080838252602082019050602084028301858111156200054f576200054e6200050d565b5b835b818110156200059d57805167ffffffffffffffff81111562000578576200057762000355565b5b808601620005878982620004ab565b8552602085019450505060208101905062000551565b5050509392505050565b600082601f830112620005bf57620005be62000355565b5b8151620005d184826020860162000512565b91505092915050565b60008060408385031215620005f457620005f36200034b565b5b600083015167ffffffffffffffff81111562000615576200061462000350565b5b6200062385828601620004ab565b925050602083015167ffffffffffffffff81111562000647576200064662000350565b5b6200065585828601620005a7565b9150509250929050565b7f4e487b7100000000000000000000000000000000000000000000000000000000600052602160045260246000fd5b7f4e487b7100000000000000000000000000000000000000000000000000000000600052603260045260246000fd5b7f4e487b7100000000000000000000000000000000000000000000000000000000600052601160045260246000fd5b6000819050919050565b60006200070382620006ec565b91507fffffffffffffffffffffffffffffffffffffffffffffffffffffffffffffffff821415620007395762000738620006bd565b5b600182019050919050565b600081519050919050565b600082825260208201905092915050565b60006200076d8262000744565b6200077981856200074f565b93506200078b8185602086016200042a565b62000796816200035f565b840191505092915050565b600073ffffffffffffffffffffffffffffffffffffffff82169050919050565b6000620007ce82620007a1565b9050919050565b620007e081620007c1565b82525050565b6000604082019050818103600083015262000802818562000760565b9050620008136020830184620007d5565b9392505050565b7f50726f706f73616c207469746c652063616e6e6f7420626520656d7074790000600082015250565b600062000852601e836200074f565b91506200085f826200081a565b602082019050919050565b60006020820190508181036000830152620008858162000843565b9050919050565b60006200089982620006ec565b9150620008a683620006ec565b925082821015620008bc57620008bb620006bd565b5b828203905092915050565b60006020820190508181036000830152620008e3818462000760565b905092915050565b7f4e487b7100000000000000000000000000000000000000000000000000000000600052602260045260246000fd5b600060028204905060018216806200093357607f821691505b602082108114156200094a5762000949620008eb565b5b50919050565b608051613a1d6200098f600039600081816107eb01528181610bd701528181611800015281816119b801528181611de701526122170152613a1d6000f3fe608060405234801561001057600080fd5b50600436106101375760003560e01c80636fe8022c116100b8578063b55e36ac1161007c578063b55e36ac146102fa578063c631b29214610304578063c7f758a81461030e578063d4f50f9814610341578063da35c66414610377578063f851a4401461039557610137565b80636fe8022c1461026157806376d9be08146102825780638373cab2146102a257806385e8e7a7146102be578063b1c9fe6e146102dc57610137565b806336fb8b15116100ff57806336fb8b15146101ce5780633d2f5bda146101d857806354ad3948146101f45780635c19a95c14610224578063609ff1bd1461024057610137565b80630121b93f1461013c57806311174a29146101585780631ea736e0146101765780632019a6081461019457806323d1c95e146101b2575b600080fd5b610156600480360381019061015191906124dd565b6103b3565b005b6101606107d0565b60405161016d9190612519565b60405180910390f35b61017e6107dd565b60405161018b9190612519565b60405180910390f35b61019c6107e3565b6040516101a99190612519565b60405180910390f35b6101cc60048036038101906101c7919061267a565b6107e9565b005b6101d66108fd565b005b6101f260048036038101906101ed91906124dd565b610bd5565b005b61020e600480360381019061020991906124dd565b610e3d565b60405161021b9190612519565b60405180910390f35b61023e60048036038101906102399190612750565b610ec5565b005b610248611346565b6040516102589493929190612805565b60405180910390f35b6102696114a2565b604051610279949392919061286c565b60405180910390f35b61028a611516565b60405161029993929190612a7b565b60405180910390f35b6102bc60048036038101906102b79190612ac7565b6117fe565b005b6102c6611bf1565b6040516102d39190612b07565b60405180910390f35b6102e4611c7f565b6040516102f19190612ba0565b60405180910390f35b610302611c92565b005b61030c611de5565b005b610328600480360381019061032391906124dd565b611f82565b6040516103389493929190612bbb565b60405180910390f35b61035b60048036038101906103569190612750565b61212f565b60405161036e9796959493929190612c1d565b60405180910390f35b61037f612208565b60405161038c9190612519565b60405180910390f35b61039d612215565b6040516103aa9190612c8c565b60405180910390f35b600160028111156103c7576103c6612b29565b5b600160009054906101000a900460ff1660028111156103e9576103e8612b29565b5b14610429576040517f08c379a000000000000000000000000000000000000000000000000000000000815260040161042090612cf3565b60405180910390fd5b60025442101561046e576040517f08c379a000000000000000000000000000000000000000000000000000000000815260040161046590612d5f565b60405180910390fd5b6003544211156104b3576040517f08c379a00000000000000000000000000000000000000000000000000000000081526004016104aa90612dcb565b60405180910390fd5b60048054905081106104fa576040517f08c379a00000000000000000000000000000000000000000000000000000000081526004016104f190612e37565b60405180910390fd5b6000600560003373ffffffffffffffffffffffffffffffffffffffff1673ffffffffffffffffffffffffffffffffffffffff16815260200190815260200160002090508060000160009054906101000a900460ff1661058e576040517f08c379a000000000000000000000000000000000000000000000000000000000815260040161058590612ea3565b60405180910390fd5b8060020160009054906101000a900460ff16156105e0576040517f08c379a00000000000000000000000000000000000000000000000000000000081526004016105d790612f0f565b60405180910390fd5b600073ffffffffffffffffffffffffffffffffffffffff168160040160009054906101000a900473ffffffffffffffffffffffffffffffffffffffff1673ffffffffffffffffffffffffffffffffffffffff1614610673576040517f08c379a000000000000000000000000000000000000000000000000000000000815260040161066a90612f7b565b60405180910390fd5b6000816005015482600101546106899190612fca565b9050600081116106ce576040517f08c379a00000000000000000000000000000000000000000000000000000000081526004016106c59061306c565b60405180910390fd5b60006106d982610e3d565b905060018360020160006101000a81548160ff02191690831515021790555083836003018190555080600485815481106107165761071561308c565b5b906000526020600020906004020160020160008282546107369190612fca565b9250508190555081600485815481106107525761075161308c565b5b906000526020600020906004020160030160008282546107729190612fca565b92505081905550833373ffffffffffffffffffffffffffffffffffffffff167fc32b42768a47a585121e9b8d7a2ab9d3f34c326a192dee11ee1732e3d18313f383856040516107c29291906130bb565b60405180910390a350505050565b6000600680549050905090565b60035481565b60025481565b7f000000000000000000000000000000000000000000000000000000000000000073ffffffffffffffffffffffffffffffffffffffff163373ffffffffffffffffffffffffffffffffffffffff1614610877576040517f08c379a000000000000000000000000000000000000000000000000000000000815260040161086e90613156565b60405180910390fd5b600080600281111561088c5761088b612b29565b5b600160009054906101000a900460ff1660028111156108ae576108ad612b29565b5b146108ee576040517f08c379a00000000000000000000000000000000000000000000000000000000081526004016108e5906131e8565b60405180910390fd5b6108f88383612239565b505050565b600080600281111561091257610911612b29565b5b600160009054906101000a900460ff16600281111561093457610933612b29565b5b14610974576040517f08c379a000000000000000000000000000000000000000000000000000000000815260040161096b906131e8565b60405180910390fd5b6000600560003373ffffffffffffffffffffffffffffffffffffffff1673ffffffffffffffffffffffffffffffffffffffff16815260200190815260200160002090508060000160009054906101000a900460ff16610a08576040517f08c379a00000000000000000000000000000000000000000000000000000000081526004016109ff90612ea3565b60405180910390fd5b600073ffffffffffffffffffffffffffffffffffffffff168160040160009054906101000a900473ffffffffffffffffffffffffffffffffffffffff1673ffffffffffffffffffffffffffffffffffffffff161415610a9c576040517f08c379a0000000000000000000000000000000000000000000000000000000008152600401610a9390613254565b60405180910390fd5b6000600560008360040160009054906101000a900473ffffffffffffffffffffffffffffffffffffffff1673ffffffffffffffffffffffffffffffffffffffff1673ffffffffffffffffffffffffffffffffffffffff16815260200190815260200160002090508160010154816005016000828254610b1b9190613274565b92505081905550600073ffffffffffffffffffffffffffffffffffffffff163373ffffffffffffffffffffffffffffffffffffffff167ff5c2b450c3b6c4c3cc8c45e612ffa5ce51cda974e8b2ecaf58abda86d89658478460010154604051610b849190612519565b60405180910390a360008260040160006101000a81548173ffffffffffffffffffffffffffffffffffffffff021916908373ffffffffffffffffffffffffffffffffffffffff160217905550505050565b7f000000000000000000000000000000000000000000000000000000000000000073ffffffffffffffffffffffffffffffffffffffff163373ffffffffffffffffffffffffffffffffffffffff1614610c63576040517f08c379a0000000000000000000000000000000000000000000000000000000008152600401610c5a90613156565b60405180910390fd5b6000806002811115610c7857610c77612b29565b5b600160009054906101000a900460ff166002811115610c9a57610c99612b29565b5b14610cda576040517f08c379a0000000000000000000000000000000000000000000000000000000008152600401610cd1906131e8565b60405180910390fd5b600060048054905011610d22576040517f08c379a0000000000000000000000000000000000000000000000000000000008152600401610d19906132f4565b60405180910390fd5b600060068054905011610d6a576040517f08c379a0000000000000000000000000000000000000000000000000000000008152600401610d6190613386565b60405180910390fd5b60008211610dad576040517f08c379a0000000000000000000000000000000000000000000000000000000008152600401610da490613418565b60405180910390fd5b60018060006101000a81548160ff02191690836002811115610dd257610dd1612b29565b5b021790555042600281905550603c82610deb9190613438565b42610df69190612fca565b6003819055507ff8c022056754dbacca05aff710dc315a2fa7699ae9309fda403cd1e55c11d40f600254600354604051610e319291906130bb565b60405180910390a15050565b600080821415610e505760009050610ec0565b6001821415610e625760019050610ec0565b600082905060006002600183610e789190612fca565b610e8291906134c1565b90505b81811015610eba578091506002818286610e9f91906134c1565b610ea99190612fca565b610eb391906134c1565b9050610e85565b81925050505b919050565b6000806002811115610eda57610ed9612b29565b5b600160009054906101000a900460ff166002811115610efc57610efb612b29565b5b14610f3c576040517f08c379a0000000000000000000000000000000000000000000000000000000008152600401610f33906131e8565b60405180910390fd5b6000600560003373ffffffffffffffffffffffffffffffffffffffff1673ffffffffffffffffffffffffffffffffffffffff16815260200190815260200160002090508060000160009054906101000a900460ff16610fd0576040517f08c379a0000000000000000000000000000000000000000000000000000000008152600401610fc790612ea3565b60405180910390fd5b8060020160009054906101000a900460ff1615611022576040517f08c379a000000000000000000000000000000000000000000000000000000000815260040161101990612f0f565b60405180910390fd5b3373ffffffffffffffffffffffffffffffffffffffff168373ffffffffffffffffffffffffffffffffffffffff161415611091576040517f08c379a00000000000000000000000000000000000000000000000000000000081526004016110889061353e565b60405180910390fd5b600073ffffffffffffffffffffffffffffffffffffffff168373ffffffffffffffffffffffffffffffffffffffff161415611101576040517f08c379a00000000000000000000000000000000000000000000000000000000081526004016110f8906135aa565b60405180910390fd5b6000600560008573ffffffffffffffffffffffffffffffffffffffff1673ffffffffffffffffffffffffffffffffffffffff16815260200190815260200160002090508060000160009054906101000a900460ff16611195576040517f08c379a000000000000000000000000000000000000000000000000000000000815260040161118c9061363c565b60405180910390fd5b600073ffffffffffffffffffffffffffffffffffffffff168260040160009054906101000a900473ffffffffffffffffffffffffffffffffffffffff1673ffffffffffffffffffffffffffffffffffffffff1614611275576000600560008460040160009054906101000a900473ffffffffffffffffffffffffffffffffffffffff1673ffffffffffffffffffffffffffffffffffffffff1673ffffffffffffffffffffffffffffffffffffffff1681526020019081526020016000209050826001015481600501600082825461126c9190613274565b92505081905550505b838260040160006101000a81548173ffffffffffffffffffffffffffffffffffffffff021916908373ffffffffffffffffffffffffffffffffffffffff16021790555081600101548160050160008282546112d09190612fca565b925050819055508373ffffffffffffffffffffffffffffffffffffffff163373ffffffffffffffffffffffffffffffffffffffff167ff5c2b450c3b6c4c3cc8c45e612ffa5ce51cda974e8b2ecaf58abda86d896584784600101546040516113389190612519565b60405180910390a350505050565b60006060600080600280600281111561136257611361612b29565b5b600160009054906101000a900460ff16600281111561138457611383612b29565b5b146113c4576040517f08c379a00000000000000000000000000000000000000000000000000000000081526004016113bb906131e8565b60405180910390fd5b60006113ce612368565b90506000600482815481106113e6576113e561308c565b5b906000526020600020906004020190508181600001826002015483600301548280546114119061368b565b80601f016020809104026020016040519081016040528092919081815260200182805461143d9061368b565b801561148a5780601f1061145f5761010080835404028352916020019161148a565b820191906000526020600020905b81548152906001019060200180831161146d57829003601f168201915b50505050509250965096509650965050505090919293565b6000806000806000600160028111156114be576114bd612b29565b5b600160009054906101000a900460ff1660028111156114e0576114df612b29565b5b1480156114ef57506002544210155b80156114fd57506003544211155b9050426002546003548394509450945094505090919293565b606080606060028060028111156115305761152f612b29565b5b600160009054906101000a900460ff16600281111561155257611551612b29565b5b14611592576040517f08c379a0000000000000000000000000000000000000000000000000000000008152600401611589906131e8565b60405180910390fd5b600060048054905090508067ffffffffffffffff8111156115b6576115b561254f565b5b6040519080825280602002602001820160405280156115e957816020015b60608152602001906001900390816115d45790505b5094508067ffffffffffffffff8111156116065761160561254f565b5b6040519080825280602002602001820160405280156116345781602001602082028036833780820191505090505b5093508067ffffffffffffffff8111156116515761165061254f565b5b60405190808252806020026020018201604052801561167f5781602001602082028036833780820191505090505b50925060005b818110156117f657600481815481106116a1576116a061308c565b5b906000526020600020906004020160000180546116bd9061368b565b80601f01602080910402602001604051908101604052809291908181526020018280546116e99061368b565b80156117365780601f1061170b57610100808354040283529160200191611736565b820191906000526020600020905b81548152906001019060200180831161171957829003601f168201915b505050505086828151811061174e5761174d61308c565b5b60200260200101819052506004818154811061176d5761176c61308c565b5b9060005260206000209060040201600201548582815181106117925761179161308c565b5b602002602001018181525050600481815481106117b2576117b161308c565b5b9060005260206000209060040201600301548482815181106117d7576117d661308c565b5b60200260200101818152505080806117ee906136bd565b915050611685565b505050909192565b7f000000000000000000000000000000000000000000000000000000000000000073ffffffffffffffffffffffffffffffffffffffff163373ffffffffffffffffffffffffffffffffffffffff161461188c576040517f08c379a000000000000000000000000000000000000000000000000000000000815260040161188390613156565b60405180910390fd5b60008060028111156118a1576118a0612b29565b5b600160009054906101000a900460ff1660028111156118c3576118c2612b29565b5b14611903576040517f08c379a00000000000000000000000000000000000000000000000000000000081526004016118fa906131e8565b60405180910390fd5b600073ffffffffffffffffffffffffffffffffffffffff168373ffffffffffffffffffffffffffffffffffffffff161415611973576040517f08c379a000000000000000000000000000000000000000000000000000000000815260040161196a90613752565b60405180910390fd5b600082116119b6576040517f08c379a00000000000000000000000000000000000000000000000000000000081526004016119ad906137be565b60405180910390fd5b7f000000000000000000000000000000000000000000000000000000000000000073ffffffffffffffffffffffffffffffffffffffff168373ffffffffffffffffffffffffffffffffffffffff161415611a45576040517f08c379a0000000000000000000000000000000000000000000000000000000008152600401611a3c9061382a565b60405180910390fd5b6000600560008573ffffffffffffffffffffffffffffffffffffffff1673ffffffffffffffffffffffffffffffffffffffff16815260200190815260200160002090508060000160009054906101000a900460ff16611b02576006849080600181540180825580915050600190039060005260206000200160009091909190916101000a81548173ffffffffffffffffffffffffffffffffffffffff021916908373ffffffffffffffffffffffffffffffffffffffff1602179055505b60018160000160006101000a81548160ff02191690831515021790555082816001018190555060008160020160006101000a81548160ff0219169083151502179055506000816003018190555060008160040160006101000a81548173ffffffffffffffffffffffffffffffffffffffff021916908373ffffffffffffffffffffffffffffffffffffffff160217905550600081600501819055508373ffffffffffffffffffffffffffffffffffffffff167f66a8b13abe95391d1851f5bc319f3dde54ce8f2f40a5fe226aa3251d805832e384604051611be39190612519565b60405180910390a250505050565b60008054611bfe9061368b565b80601f0160208091040260200160405190810160405280929190818152602001828054611c2a9061368b565b8015611c775780601f10611c4c57610100808354040283529160200191611c77565b820191906000526020600020905b815481529060010190602001808311611c5a57829003601f168201915b505050505081565b600160009054906101000a900460ff1681565b6001806002811115611ca757611ca6612b29565b5b600160009054906101000a900460ff166002811115611cc957611cc8612b29565b5b14611d09576040517f08c379a0000000000000000000000000000000000000000000000000000000008152600401611d00906131e8565b60405180910390fd5b6003544211611d4d576040517f08c379a0000000000000000000000000000000000000000000000000000000008152600401611d4490613896565b60405180910390fd5b6002600160006101000a81548160ff02191690836002811115611d7357611d72612b29565b5b02179055506000611d82612368565b90507fa3227ce2555eb04e16ca713bb19edd3beed774c93bcdf4e971f7aa405c2ca2538160048381548110611dba57611db961308c565b5b9060005260206000209060040201600001604051611dd992919061394b565b60405180910390a15050565b7f000000000000000000000000000000000000000000000000000000000000000073ffffffffffffffffffffffffffffffffffffffff163373ffffffffffffffffffffffffffffffffffffffff1614611e73576040517f08c379a0000000000000000000000000000000000000000000000000000000008152600401611e6a90613156565b60405180910390fd5b6001806002811115611e8857611e87612b29565b5b600160009054906101000a900460ff166002811115611eaa57611ea9612b29565b5b14611eea576040517f08c379a0000000000000000000000000000000000000000000000000000000008152600401611ee1906131e8565b60405180910390fd5b6002600160006101000a81548160ff02191690836002811115611f1057611f0f612b29565b5b02179055506000611f1f612368565b90507fa3227ce2555eb04e16ca713bb19edd3beed774c93bcdf4e971f7aa405c2ca2538160048381548110611f5757611f5661308c565b5b9060005260206000209060040201600001604051611f7692919061394b565b60405180910390a15050565b6060806000806004805490508510611fcf576040517f08c379a0000000000000000000000000000000000000000000000000000000008152600401611fc690612e37565b60405180910390fd5b600060048681548110611fe557611fe461308c565b5b906000526020600020906004020190508060000181600101826002015483600301548380546120139061368b565b80601f016020809104026020016040519081016040528092919081815260200182805461203f9061368b565b801561208c5780601f106120615761010080835404028352916020019161208c565b820191906000526020600020905b81548152906001019060200180831161206f57829003601f168201915b5050505050935082805461209f9061368b565b80601f01602080910402602001604051908101604052809291908181526020018280546120cb9061368b565b80156121185780601f106120ed57610100808354040283529160200191612118565b820191906000526020600020905b8154815290600101906020018083116120fb57829003601f168201915b505050505092509450945094509450509193509193565b600080600080600080600080600560008a73ffffffffffffffffffffffffffffffffffffffff1673ffffffffffffffffffffffffffffffffffffffff16815260200190815260200160002090506000816005015482600101546121929190612fca565b90508160000160009054906101000a900460ff1682600101548360020160009054906101000a900460ff1684600301548560040160009054906101000a900473ffffffffffffffffffffffffffffffffffffffff1686600501548698509850985098509850985098505050919395979092949650565b6000600480549050905090565b7f000000000000000000000000000000000000000000000000000000000000000081565b600082511161227d576040517f08c379a0000000000000000000000000000000000000000000000000000000008152600401612274906139c7565b60405180910390fd5b60046040518060800160405280848152602001838152602001600081526020016000815250908060018154018082558091505060019003906000526020600020906004020160009091909190915060008201518160000190805190602001906122e79291906123f0565b5060208201518160010190805190602001906123049291906123f0565b5060408201518160020155606082015181600301555050600160048054905061232d9190613274565b7ff970aa486598017b8116c2beb18c50d4584ecbc3c688817f59b26796725f31bf8360405161235c9190612b07565b60405180910390a25050565b6000806000905060005b6004805490508110156123eb5781600482815481106123945761239361308c565b5b90600052602060002090600402016002015411156123d857600481815481106123c0576123bf61308c565b5b90600052602060002090600402016002015491508092505b80806123e3906136bd565b915050612372565b505090565b8280546123fc9061368b565b90600052602060002090601f01602090048101928261241e5760008555612465565b82601f1061243757805160ff1916838001178555612465565b82800160010185558215612465579182015b82811115612464578251825591602001919060010190612449565b5b5090506124729190612476565b5090565b5b8082111561248f576000816000905550600101612477565b5090565b6000604051905090565b600080fd5b600080fd5b6000819050919050565b6124ba816124a7565b81146124c557600080fd5b50565b6000813590506124d7816124b1565b92915050565b6000602082840312156124f3576124f261249d565b5b6000612501848285016124c8565b91505092915050565b612513816124a7565b82525050565b600060208201905061252e600083018461250a565b92915050565b600080fd5b600080fd5b6000601f19601f8301169050919050565b7f4e487b7100000000000000000000000000000000000000000000000000000000600052604160045260246000fd5b6125878261253e565b810181811067ffffffffffffffff821117156125a6576125a561254f565b5b80604052505050565b60006125b9612493565b90506125c5828261257e565b919050565b600067ffffffffffffffff8211156125e5576125e461254f565b5b6125ee8261253e565b9050602081019050919050565b82818337600083830152505050565b600061261d612618846125ca565b6125af565b90508281526020810184848401111561263957612638612539565b5b6126448482856125fb565b509392505050565b600082601f83011261266157612660612534565b5b813561267184826020860161260a565b91505092915050565b600080604083850312156126915761269061249d565b5b600083013567ffffffffffffffff8111156126af576126ae6124a2565b5b6126bb8582860161264c565b925050602083013567ffffffffffffffff8111156126dc576126db6124a2565b5b6126e88582860161264c565b9150509250929050565b600073ffffffffffffffffffffffffffffffffffffffff82169050919050565b600061271d826126f2565b9050919050565b61272d81612712565b811461273857600080fd5b50565b60008135905061274a81612724565b92915050565b6000602082840312156127665761276561249d565b5b60006127748482850161273b565b91505092915050565b600081519050919050565b600082825260208201905092915050565b60005b838110156127b757808201518184015260208101905061279c565b838111156127c6576000848401525b50505050565b60006127d78261277d565b6127e18185612788565b93506127f1818560208601612799565b6127fa8161253e565b840191505092915050565b600060808201905061281a600083018761250a565b818103602083015261282c81866127cc565b905061283b604083018561250a565b612848606083018461250a565b95945050505050565b60008115159050919050565b61286681612851565b82525050565b6000608082019050612881600083018761250a565b61288e602083018661250a565b61289b604083018561250a565b6128a8606083018461285d565b95945050505050565b600081519050919050565b600082825260208201905092915050565b6000819050602082019050919050565b600082825260208201905092915050565b60006128f98261277d565b61290381856128dd565b9350612913818560208601612799565b61291c8161253e565b840191505092915050565b600061293383836128ee565b905092915050565b6000602082019050919050565b6000612953826128b1565b61295d81856128bc565b93508360208202850161296f856128cd565b8060005b858110156129ab578484038952815161298c8582612927565b94506129978361293b565b925060208a01995050600181019050612973565b50829750879550505050505092915050565b600081519050919050565b600082825260208201905092915050565b6000819050602082019050919050565b6129f2816124a7565b82525050565b6000612a0483836129e9565b60208301905092915050565b6000602082019050919050565b6000612a28826129bd565b612a3281856129c8565b9350612a3d836129d9565b8060005b83811015612a6e578151612a5588826129f8565b9750612a6083612a10565b925050600181019050612a41565b5085935050505092915050565b60006060820190508181036000830152612a958186612948565b90508181036020830152612aa98185612a1d565b90508181036040830152612abd8184612a1d565b9050949350505050565b60008060408385031215612ade57612add61249d565b5b6000612aec8582860161273b565b9250506020612afd858286016124c8565b9150509250929050565b60006020820190508181036000830152612b2181846127cc565b905092915050565b7f4e487b7100000000000000000000000000000000000000000000000000000000600052602160045260246000fd5b60038110612b6957612b68612b29565b5b50565b6000819050612b7a82612b58565b919050565b6000612b8a82612b6c565b9050919050565b612b9a81612b7f565b82525050565b6000602082019050612bb56000830184612b91565b92915050565b60006080820190508181036000830152612bd581876127cc565b90508181036020830152612be981866127cc565b9050612bf8604083018561250a565b612c05606083018461250a565b95945050505050565b612c1781612712565b82525050565b600060e082019050612c32600083018a61285d565b612c3f602083018961250a565b612c4c604083018861285d565b612c59606083018761250a565b612c666080830186612c0e565b612c7360a083018561250a565b612c8060c083018461250a565b98975050505050505050565b6000602082019050612ca16000830184612c0e565b92915050565b7f566f74696e67206973206e6f7420616374697665000000000000000000000000600082015250565b6000612cdd601483612788565b9150612ce882612ca7565b602082019050919050565b60006020820190508181036000830152612d0c81612cd0565b9050919050565b7f566f74696e6720686173206e6f74207374617274656420796574000000000000600082015250565b6000612d49601a83612788565b9150612d5482612d13565b602082019050919050565b60006020820190508181036000830152612d7881612d3c565b9050919050565b7f566f74696e6720706572696f642068617320656e646564000000000000000000600082015250565b6000612db5601783612788565b9150612dc082612d7f565b602082019050919050565b60006020820190508181036000830152612de481612da8565b9050919050565b7f496e76616c69642070726f706f73616c20494400000000000000000000000000600082015250565b6000612e21601383612788565b9150612e2c82612deb565b602082019050919050565b60006020820190508181036000830152612e5081612e14565b9050919050565b7f596f7520617265206e6f7420612077686974656c697374656420766f74657200600082015250565b6000612e8d601f83612788565b9150612e9882612e57565b602082019050919050565b60006020820190508181036000830152612ebc81612e80565b9050919050565b7f596f75206861766520616c726561647920766f74656400000000000000000000600082015250565b6000612ef9601683612788565b9150612f0482612ec3565b602082019050919050565b60006020820190508181036000830152612f2881612eec565b9050919050565b7f596f7520686176652064656c65676174656420796f757220766f746500000000600082015250565b6000612f65601c83612788565b9150612f7082612f2f565b602082019050919050565b60006020820190508181036000830152612f9481612f58565b9050919050565b7f4e487b7100000000000000000000000000000000000000000000000000000000600052601160045260246000fd5b6000612fd5826124a7565b9150612fe0836124a7565b9250827fffffffffffffffffffffffffffffffffffffffffffffffffffffffffffffffff0382111561301557613014612f9b565b5b828201905092915050565b7f4e6f20766f74696e6720706f7765720000000000000000000000000000000000600082015250565b6000613056600f83612788565b915061306182613020565b602082019050919050565b6000602082019050818103600083015261308581613049565b9050919050565b7f4e487b7100000000000000000000000000000000000000000000000000000000600052603260045260246000fd5b60006040820190506130d0600083018561250a565b6130dd602083018461250a565b9392505050565b7f4f6e6c792061646d696e2063616e20706572666f726d2074686973206163746960008201527f6f6e000000000000000000000000000000000000000000000000000000000000602082015250565b6000613140602283612788565b915061314b826130e4565b604082019050919050565b6000602082019050818103600083015261316f81613133565b9050919050565b7f416374696f6e206e6f7420616c6c6f77656420696e2063757272656e7420706860008201527f6173650000000000000000000000000000000000000000000000000000000000602082015250565b60006131d2602383612788565b91506131dd82613176565b604082019050919050565b60006020820190508181036000830152613201816131c5565b9050919050565b7f596f752068617665206e6f742064656c65676174656400000000000000000000600082015250565b600061323e601683612788565b915061324982613208565b602082019050919050565b6000602082019050818103600083015261326d81613231565b9050919050565b600061327f826124a7565b915061328a836124a7565b92508282101561329d5761329c612f9b565b5b828203905092915050565b7f416464206174206c65617374206f6e652070726f706f73616c20666972737400600082015250565b60006132de601f83612788565b91506132e9826132a8565b602082019050919050565b6000602082019050818103600083015261330d816132d1565b9050919050565b7f57686974656c697374206174206c65617374206f6e6520766f7465722066697260008201527f7374000000000000000000000000000000000000000000000000000000000000602082015250565b6000613370602283612788565b915061337b82613314565b604082019050919050565b6000602082019050818103600083015261339f81613363565b9050919050565b7f4475726174696f6e206d7573742062652067726561746572207468616e207a6560008201527f726f000000000000000000000000000000000000000000000000000000000000602082015250565b6000613402602283612788565b915061340d826133a6565b604082019050919050565b60006020820190508181036000830152613431816133f5565b9050919050565b6000613443826124a7565b915061344e836124a7565b9250817fffffffffffffffffffffffffffffffffffffffffffffffffffffffffffffffff048311821515161561348757613486612f9b565b5b828202905092915050565b7f4e487b7100000000000000000000000000000000000000000000000000000000600052601260045260246000fd5b60006134cc826124a7565b91506134d7836124a7565b9250826134e7576134e6613492565b5b828204905092915050565b7f43616e6e6f742064656c656761746520746f20796f757273656c660000000000600082015250565b6000613528601b83612788565b9150613533826134f2565b602082019050919050565b600060208201905081810360008301526135578161351b565b9050919050565b7f43616e6e6f742064656c656761746520746f207a65726f206164647265737300600082015250565b6000613594601f83612788565b915061359f8261355e565b602082019050919050565b600060208201905081810360008301526135c381613587565b9050919050565b7f44656c6567617465206973206e6f7420612077686974656c697374656420766f60008201527f7465720000000000000000000000000000000000000000000000000000000000602082015250565b6000613626602383612788565b9150613631826135ca565b604082019050919050565b6000602082019050818103600083015261365581613619565b9050919050565b7f4e487b7100000000000000000000000000000000000000000000000000000000600052602260045260246000fd5b600060028204905060018216806136a357607f821691505b602082108114156136b7576136b661365c565b5b50919050565b60006136c8826124a7565b91507fffffffffffffffffffffffffffffffffffffffffffffffffffffffffffffffff8214156136fb576136fa612f9b565b5b600182019050919050565b7f43616e6e6f742077686974656c697374207a65726f2061646472657373000000600082015250565b600061373c601d83612788565b915061374782613706565b602082019050919050565b6000602082019050818103600083015261376b8161372f565b9050919050565b7f576569676874206d7573742062652067726561746572207468616e207a65726f600082015250565b60006137a8602083612788565b91506137b382613772565b602082019050919050565b600060208201905081810360008301526137d78161379b565b9050919050565b7f41646d696e2063616e6e6f74206265206120766f746572000000000000000000600082015250565b6000613814601783612788565b915061381f826137de565b602082019050919050565b6000602082019050818103600083015261384381613807565b9050919050565b7f566f74696e6720706572696f64206e6f742079657420656e6465640000000000600082015250565b6000613880601b83612788565b915061388b8261384a565b602082019050919050565b600060208201905081810360008301526138af81613873565b9050919050565b60008190508160005260206000209050919050565b600081546138d88161368b565b6138e28186612788565b945060018216600081146138fd576001811461390f57613942565b60ff1983168652602086019350613942565b613918856138b6565b60005b8381101561393a5781548189015260018201915060208101905061391b565b808801955050505b50505092915050565b6000604082019050613960600083018561250a565b818103602083015261397281846138cb565b90509392505050565b7f50726f706f73616c207469746c652063616e6e6f7420626520656d7074790000600082015250565b60006139b1601e83612788565b91506139bc8261397b565b602082019050919050565b600060208201905081810360008301526139e0816139a4565b905091905056fea264697066735822122018fe654a3a50c21602d9101df4d7d101fbdec03b6cd5a14b62ff49303ebb1b8d64736f6c634300080b0033",
  "immutableReferences": {
    "43": [
      {
        "length": 32,
        "start": 2027
      },
      {
        "length": 32,
        "start": 3031
      },
      {
        "length": 32,
        "start": 6144
      },
      {
        "length": 32,
        "start": 6584
      },
      {
        "length": 32,
        "start": 7655
      },
      {
        "length": 32,
        "start": 8727
      }
    ]
  },
  "source": "// SPDX-License-Identifier: MIT\r\npragma solidity ^0.8.11;\r\n\r\n/**\r\n * @title GovernanceVoting\r\n * @notice A governance voting system with:\r\n *   - Voter Delegation: Voters can delegate their voting power to another voter\r\n *   - Time-Based Voting: Voting starts and ends automatically based on timestamps\r\n *   - Quadratic Voting: Vote power = sqrt(weight), preventing whale dominance\r\n */\r\ncontract GovernanceVoting {\r\n    \r\n    // ============ DATA STRUCTURES ============\r\n    \r\n    struct Proposal {\r\n        string title;\r\n        string description;\r\n        uint256 voteCount;      // Total quadratic votes received\r\n        uint256 rawVoteCount;   // Total raw weight (for comparison display)\r\n    }\r\n\r\n    struct Voter {\r\n        bool whitelisted;\r\n        uint256 weight;           // Voting credits (tokens)\r\n        bool voted;\r\n        uint256 votedProposalId;\r\n        address delegate;         // Who this voter delegated to (address(0) if none)\r\n        uint256 delegatedWeight;  // Extra weight received from delegators\r\n    }\r\n\r\n    enum Phase {\r\n        Setup,      // Admin adds proposals and whitelists voters\r\n        Voting,     // Voters cast ballots (time-based)\r\n        Finished    // Voting closed, results available\r\n    }\r\n\r\n    // ============ STATE VARIABLES ============\r\n    \r\n    address public immutable admin;\r\n    string public electionName;\r\n    Phase public phase;\r\n    \r\n    // Time-based voting\r\n    uint256 public votingStartTime;\r\n    uint256 public votingEndTime;\r\n    \r\n    // Proposals and voters\r\n    Proposal[] private _proposals;\r\n    mapping(address => Voter) private _voters;\r\n    address[] private _voterAddresses; // Track all whitelisted addresses\r\n    \r\n    // ============ EVENTS ============\r\n    \r\n    event ElectionCreated(string name, address admin);\r\n    event ProposalAdded(uint256 indexed proposalId, string title);\r\n    event VoterWhitelisted(address indexed account, uint256 weight);\r\n    event VoteDelegated(address indexed from, address indexed to, uint256 weight);\r\n    event Voted(address indexed account, uint256 indexed proposalId, uint256 quadraticVotes, uint256 rawWeight);\r\n    event VotingStarted(uint256 startTime, uint256 endTime);\r\n    event VotingEnded(uint256 winningProposalId, string winningTitle);\r\n    \r\n    // ============ MODIFIERS ============\r\n    \r\n    modifier onlyAdmin() {\r\n        require(msg.sender == admin, \"Only admin can perform this action\");\r\n        _;\r\n    }\r\n\r\n    modifier inPhase(Phase expected) {\r\n        require(phase == expected, \"Action not allowed in current phase\");\r\n        _;\r\n    }\r\n    \r\n    modifier votingOpen() {\r\n        require(phase == Phase.Voting, \"Voting is not active\");\r\n        require(block.timestamp >= votingStartTime, \"Voting has not started yet\");\r\n        require(block.timestamp <= votingEndTime, \"Voting period has ended\");\r\n        _;\r\n    }\r\n\r\n    // ============ CONSTRUCTOR ============\r\n    \r\n    constructor(string memory _electionName, string[] memory proposalTitles) {\r\n        admin = msg.sender;\r\n        electionName = _electionName;\r\n        phase = Phase.Setup;\r\n        \r\n        // Add initial proposals\r\n        for (uint256 i = 0; i < proposalTitles.length; i++) {\r\n            _addProposal(proposalTitles[i], \"\");\r\n        }\r\n        \r\n        emit ElectionCreated(_electionName, msg.sender);\r\n    }\r\n\r\n    // ============ VIEW FUNCTIONS ============\r\n    \r\n    function proposalCount() external view returns (uint256) {\r\n        return _proposals.length;\r\n    }\r\n\r\n    function getProposal(uint256 proposalId) external view returns (\r\n        string memory title,\r\n        string memory description,\r\n        uint256 quadraticVotes,\r\n        uint256 rawVotes\r\n    ) {\r\n        require(proposalId < _proposals.length, \"Invalid proposal ID\");\r\n        Proposal storage prop = _proposals[proposalId];\r\n        return (prop.title, prop.description, prop.voteCount, prop.rawVoteCount);\r\n    }\r\n\r\n    function getVoter(address account) external view returns (\r\n        bool whitelisted,\r\n        uint256 weight,\r\n        bool voted,\r\n        uint256 votedProposalId,\r\n        address delegateAddress,\r\n        uint256 delegatedWeight,\r\n        uint256 totalVotingPower\r\n    ) {\r\n        Voter storage voter = _voters[account];\r\n        uint256 total = voter.weight + voter.delegatedWeight;\r\n        return (\r\n            voter.whitelisted,\r\n            voter.weight,\r\n            voter.voted,\r\n            voter.votedProposalId,\r\n            voter.delegate,\r\n            voter.delegatedWeight,\r\n            total\r\n        );\r\n    }\r\n    \r\n    function getTimeInfo() external view returns (\r\n        uint256 currentTime,\r\n        uint256 startTime,\r\n        uint256 endTime,\r\n        bool isVotingActive\r\n    ) {\r\n        bool active = phase == Phase.Voting && \r\n                      block.timestamp >= votingStartTime && \r\n                      block.timestamp <= votingEndTime;\r\n        return (block.timestamp, votingStartTime, votingEndTime, active);\r\n    }\r\n    \r\n    function getVoterCount() external view returns (uint256) {\r\n        return _voterAddresses.length;\r\n    }\r\n\r\n    // Calculate quadratic vote power: sqrt(weight)\r\n    // We use integer square root for simplicity\r\n    function calculateQuadraticVotes(uint256 weight) public pure returns (uint256) {\r\n        if (weight == 0) return 0;\r\n        if (weight == 1) return 1;\r\n        \r\n        // Babylonian method for integer square root\r\n        uint256 x = weight;\r\n        uint256 y = (x + 1) / 2;\r\n        while (y < x) {\r\n            x = y;\r\n            y = (weight / y + y) / 2;\r\n        }\r\n        return x;\r\n    }\r\n\r\n    // ============ ADMIN FUNCTIONS ============\r\n    \r\n    function addProposal(string memory title, string memory description) \r\n        external \r\n        onlyAdmin \r\n        inPhase(Phase.Setup) \r\n    {\r\n        _addProposal(title, description);\r\n    }\r\n\r\n    function _addProposal(string memory title, string memory description) private {\r\n        require(bytes(title).length > 0, \"Proposal title cannot be empty\");\r\n        _proposals.push(Proposal({\r\n            title: title,\r\n            description: description,\r\n            voteCount: 0,\r\n            rawVoteCount: 0\r\n        }));\r\n        emit ProposalAdded(_proposals.length - 1, title);\r\n    }\r\n\r\n    function whitelistVoter(address account, uint256 weight) \r\n        external \r\n        onlyAdmin \r\n        inPhase(Phase.Setup) \r\n    {\r\n        require(account != address(0), \"Cannot whitelist zero address\");\r\n        require(weight > 0, \"Weight must be greater than zero\");\r\n        require(account != admin, \"Admin cannot be a voter\");\r\n        \r\n        Voter storage voter = _voters[account];\r\n        \r\n        // If new voter, add to list\r\n        if (!voter.whitelisted) {\r\n            _voterAddresses.push(account);\r\n        }\r\n        \r\n        voter.whitelisted = true;\r\n        voter.weight = weight;\r\n        voter.voted = false;\r\n        voter.votedProposalId = 0;\r\n        voter.delegate = address(0);\r\n        voter.delegatedWeight = 0;\r\n        \r\n        emit VoterWhitelisted(account, weight);\r\n    }\r\n\r\n    function startVoting(uint256 durationInMinutes) \r\n        external \r\n        onlyAdmin \r\n        inPhase(Phase.Setup) \r\n    {\r\n        require(_proposals.length > 0, \"Add at least one proposal first\");\r\n        require(_voterAddresses.length > 0, \"Whitelist at least one voter first\");\r\n        require(durationInMinutes > 0, \"Duration must be greater than zero\");\r\n        \r\n        phase = Phase.Voting;\r\n        votingStartTime = block.timestamp;\r\n        votingEndTime = block.timestamp + (durationInMinutes * 1 minutes);\r\n        \r\n        emit VotingStarted(votingStartTime, votingEndTime);\r\n    }\r\n\r\n    function closeVoting() external onlyAdmin inPhase(Phase.Voting) {\r\n        phase = Phase.Finished;\r\n        \r\n        uint256 winnerId = _calculateWinner();\r\n        emit VotingEnded(winnerId, _proposals[winnerId].title);\r\n    }\r\n    \r\n    // Auto-close if time expired (anyone can call)\r\n    function finalizeIfExpired() external inPhase(Phase.Voting) {\r\n        require(block.timestamp > votingEndTime, \"Voting period not yet ended\");\r\n        \r\n        phase = Phase.Finished;\r\n        \r\n        uint256 winnerId = _calculateWinner();\r\n        emit VotingEnded(winnerId, _proposals[winnerId].title);\r\n    }\r\n\r\n    // ============ VOTER FUNCTIONS ============\r\n    \r\n    /**\r\n     * @notice Delegate your voting power to another whitelisted voter\r\n     * @param to The address to delegate to\r\n     */\r\n    function delegate(address to) external inPhase(Phase.Setup) {\r\n        Voter storage sender = _voters[msg.sender];\r\n        require(sender.whitelisted, \"You are not a whitelisted voter\");\r\n        require(!sender.voted, \"You have already voted\");\r\n        require(to != msg.sender, \"Cannot delegate to yourself\");\r\n        require(to != address(0), \"Cannot delegate to zero address\");\r\n        \r\n        Voter storage delegateTo = _voters[to];\r\n        require(delegateTo.whitelisted, \"Delegate is not a whitelisted voter\");\r\n        \r\n        // Remove previous delegation if exists\r\n        if (sender.delegate != address(0)) {\r\n            Voter storage oldDelegate = _voters[sender.delegate];\r\n            oldDelegate.delegatedWeight -= sender.weight;\r\n        }\r\n        \r\n        // Set new delegation\r\n        sender.delegate = to;\r\n        delegateTo.delegatedWeight += sender.weight;\r\n        \r\n        emit VoteDelegated(msg.sender, to, sender.weight);\r\n    }\r\n    \r\n    /**\r\n     * @notice Remove your delegation and reclaim voting power\r\n     */\r\n    function removeDelegate() external inPhase(Phase.Setup) {\r\n        Voter storage sender = _voters[msg.sender];\r\n        require(sender.whitelisted, \"You are not a whitelisted voter\");\r\n        require(sender.delegate != address(0), \"You have not delegated\");\r\n        \r\n        Voter storage oldDelegate = _voters[sender.delegate];\r\n        oldDelegate.delegatedWeight -= sender.weight;\r\n        \r\n        emit VoteDelegated(msg.sender, address(0), sender.weight);\r\n        sender.delegate = address(0);\r\n    }\r\n\r\n    /**\r\n     * @notice Cast your vote using quadratic voting\r\n     * @param proposalId The proposal to vote for\r\n     */\r\n    function vote(uint256 proposalId) external votingOpen {\r\n        require(proposalId < _proposals.length, \"Invalid proposal ID\");\r\n        \r\n        Voter storage voter = _voters[msg.sender];\r\n        require(voter.whitelisted, \"You are not a whitelisted voter\");\r\n        require(!voter.voted, \"You have already voted\");\r\n        require(voter.delegate == address(0), \"You have delegated your vote\");\r\n        \r\n        // Calculate total voting power (own weight + delegated weight)\r\n        uint256 totalWeight = voter.weight + voter.delegatedWeight;\r\n        require(totalWeight > 0, \"No voting power\");\r\n        \r\n        // Calculate quadratic votes\r\n        uint256 quadraticVotes = calculateQuadraticVotes(totalWeight);\r\n        \r\n        // Record vote\r\n        voter.voted = true;\r\n        voter.votedProposalId = proposalId;\r\n        \r\n        // Add votes to proposal\r\n        _proposals[proposalId].voteCount += quadraticVotes;\r\n        _proposals[proposalId].rawVoteCount += totalWeight;\r\n        \r\n        emit Voted(msg.sender, proposalId, quadraticVotes, totalWeight);\r\n    }\r\n\r\n    // ============ RESULTS ============\r\n    \r\n    function _calculateWinner() private view returns (uint256 winningId) {\r\n        uint256 highestVotes = 0;\r\n        for (uint256 i = 0; i < _proposals.length; i++) {\r\n            if (_proposals[i].voteCount > highestVotes) {\r\n                highestVotes = _proposals[i].voteCount;\r\n                winningId = i;\r\n            }\r\n        }\r\n    }\r\n\r\n    function winningProposal() external view inPhase(Phase.Finished) returns (\r\n        uint256 proposalId,\r\n        string memory title,\r\n        uint256 quadraticVotes,\r\n        uint256 rawVotes\r\n    ) {\r\n        uint256 winnerId = _calculateWinner();\r\n        Proposal storage winner = _proposals[winnerId];\r\n        return (winnerId, winner.title, winner.voteCount, winner.rawVoteCount);\r\n    }\r\n    \r\n    function getAllResults() external view inPhase(Phase.Finished) returns (\r\n        string[] memory titles,\r\n        uint256[] memory quadraticVotes,\r\n        uint256[] memory rawVotes\r\n    ) {\r\n        uint256 len = _proposals.length;\r\n        titles = new string[](len);\r\n        quadraticVotes = new uint256[](len);\r\n        rawVotes = new uint256[](len);\r\n        \r\n        for (uint256 i = 0; i < len; i++) {\r\n            titles[i] = _proposals[i].title;\r\n            quadraticVotes[i] = _proposals[i].voteCount;\r\n            rawVotes[i] = _proposals[i].rawVoteCount;\r\n        }\r\n    }\r\n}\r\n",
  "sourcePath": "C:\\Users\\Administrator\\DvotingAPP\\elect\\contracts\\GovernanceVoting.sol",
  "compiler": {
    "name": "solc",
    "version": "0.8.11+commit.d7f03943.Emscripten.clang"
  },
  "schemaVersion": "3.4.16",
  "updatedAt": "2025-12-02T11:33:06.047Z",
  "networkType": "ethereum",
  "devdoc": {
    "kind": "dev",
    "methods": {
      "delegate(address)": {
        "params": {
          "to": "The address to delegate to"
        }
      },
      "vote(uint256)": {
        "params": {
          "proposalId": "The proposal to vote for"
        }
      }
    },
    "title": "GovernanceVoting",
    "version": 1
  },
  "userdoc": {
    "kind": "user",
    "methods": {
      "delegate(address)": {
        "notice": "Delegate your voting power to another whitelisted voter"
      },
      "removeDelegate()": {
        "notice": "Remove your delegation and reclaim voting power"
      },
      "vote(uint256)": {
        "notice": "Cast your vote using quadratic voting"
      }
    },
    "notice": "A governance voting system with:   - Voter Delegation: Voters can delegate their voting power to another voter   - Time-Based Voting: Voting starts and ends automatically based on timestamps   - Quadratic Voting: Vote power = sqrt(weight), preventing whale dominance",
    "version": 1
  }
}