{
  "contractName": "GovernanceVoting",
  "abi": [
    {
      "inputs": [
        {
          "internalType": "string",
          "name": "_electionName",
          "type": "string"
        },
        {
          "internalType": "string[]",
          "name": "proposalTitles",
          "type": "string[]"
        }
      ],
      "stateMutability": "nonpayable",
      "type": "constructor"
    },
    {
      "anonymous": false,
      "inputs": [
        {
          "indexed": false,
          "internalType": "string",
          "name": "name",
          "type": "string"
        },
        {
          "indexed": false,
          "internalType": "address",
          "name": "admin",
          "type": "address"
        }
      ],
      "name": "ElectionCreated",
      "type": "event"
    },
    {
      "anonymous": false,
      "inputs": [
        {
          "indexed": false,
          "internalType": "address",
          "name": "account",
          "type": "address"
        }
      ],
      "name": "Paused",
      "type": "event"
    },
    {
      "anonymous": false,
      "inputs": [
        {
          "indexed": true,
          "internalType": "uint256",
          "name": "proposalId",
          "type": "uint256"
        },
        {
          "indexed": false,
          "internalType": "string",
          "name": "title",
          "type": "string"
        }
      ],
      "name": "ProposalAdded",
      "type": "event"
    },
    {
      "anonymous": false,
      "inputs": [
        {
          "indexed": false,
          "internalType": "address",
          "name": "account",
          "type": "address"
        }
      ],
      "name": "Unpaused",
      "type": "event"
    },
    {
      "anonymous": false,
      "inputs": [
        {
          "indexed": true,
          "internalType": "address",
          "name": "from",
          "type": "address"
        },
        {
          "indexed": true,
          "internalType": "address",
          "name": "to",
          "type": "address"
        },
        {
          "indexed": false,
          "internalType": "uint256",
          "name": "weight",
          "type": "uint256"
        }
      ],
      "name": "VoteDelegated",
      "type": "event"
    },
    {
      "anonymous": false,
      "inputs": [
        {
          "indexed": true,
          "internalType": "address",
          "name": "account",
          "type": "address"
        },
        {
          "indexed": true,
          "internalType": "uint256",
          "name": "proposalId",
          "type": "uint256"
        },
        {
          "indexed": false,
          "internalType": "uint256",
          "name": "quadraticVotes",
          "type": "uint256"
        },
        {
          "indexed": false,
          "internalType": "uint256",
          "name": "rawWeight",
          "type": "uint256"
        }
      ],
      "name": "Voted",
      "type": "event"
    },
    {
      "anonymous": false,
      "inputs": [
        {
          "indexed": true,
          "internalType": "address",
          "name": "account",
          "type": "address"
        },
        {
          "indexed": false,
          "internalType": "uint256",
          "name": "weight",
          "type": "uint256"
        }
      ],
      "name": "VoterWhitelisted",
      "type": "event"
    },
    {
      "anonymous": false,
      "inputs": [
        {
          "indexed": false,
          "internalType": "uint256",
          "name": "winningProposalId",
          "type": "uint256"
        },
        {
          "indexed": false,
          "internalType": "string",
          "name": "winningTitle",
          "type": "string"
        }
      ],
      "name": "VotingEnded",
      "type": "event"
    },
    {
      "anonymous": false,
      "inputs": [
        {
          "indexed": false,
          "internalType": "uint256",
          "name": "startTime",
          "type": "uint256"
        },
        {
          "indexed": false,
          "internalType": "uint256",
          "name": "endTime",
          "type": "uint256"
        }
      ],
      "name": "VotingStarted",
      "type": "event"
    },
    {
      "inputs": [],
      "name": "admin",
      "outputs": [
        {
          "internalType": "address",
          "name": "",
          "type": "address"
        }
      ],
      "stateMutability": "view",
      "type": "function",
      "constant": true
    },
    {
      "inputs": [],
      "name": "electionName",
      "outputs": [
        {
          "internalType": "string",
          "name": "",
          "type": "string"
        }
      ],
      "stateMutability": "view",
      "type": "function",
      "constant": true
    },
    {
      "inputs": [],
      "name": "paused",
      "outputs": [
        {
          "internalType": "bool",
          "name": "",
          "type": "bool"
        }
      ],
      "stateMutability": "view",
      "type": "function",
      "constant": true
    },
    {
      "inputs": [],
      "name": "phase",
      "outputs": [
        {
          "internalType": "enum GovernanceVoting.Phase",
          "name": "",
          "type": "uint8"
        }
      ],
      "stateMutability": "view",
      "type": "function",
      "constant": true
    },
    {
      "inputs": [],
      "name": "votingEndTime",
      "outputs": [
        {
          "internalType": "uint256",
          "name": "",
          "type": "uint256"
        }
      ],
      "stateMutability": "view",
      "type": "function",
      "constant": true
    },
    {
      "inputs": [],
      "name": "votingStartTime",
      "outputs": [
        {
          "internalType": "uint256",
          "name": "",
          "type": "uint256"
        }
      ],
      "stateMutability": "view",
      "type": "function",
      "constant": true
    },
    {
      "inputs": [],
      "name": "proposalCount",
      "outputs": [
        {
          "internalType": "uint256",
          "name": "",
          "type": "uint256"
        }
      ],
      "stateMutability": "view",
      "type": "function",
      "constant": true
    },
    {
      "inputs": [
        {
          "internalType": "uint256",
          "name": "proposalId",
          "type": "uint256"
        }
      ],
      "name": "getProposal",
      "outputs": [
        {
          "internalType": "string",
          "name": "title",
          "type": "string"
        },
        {
          "internalType": "string",
          "name": "description",
          "type": "string"
        },
        {
          "internalType": "uint256",
          "name": "quadraticVotes",
          "type": "uint256"
        },
        {
          "internalType": "uint256",
          "name": "rawVotes",
          "type": "uint256"
        }
      ],
      "stateMutability": "view",
      "type": "function",
      "constant": true
    },
    {
      "inputs": [
        {
          "internalType": "address",
          "name": "account",
          "type": "address"
        }
      ],
      "name": "getVoter",
      "outputs": [
        {
          "internalType": "bool",
          "name": "whitelisted",
          "type": "bool"
        },
        {
          "internalType": "uint256",
          "name": "weight",
          "type": "uint256"
        },
        {
          "internalType": "bool",
          "name": "voted",
          "type": "bool"
        },
        {
          "internalType": "uint256",
          "name": "votedProposalId",
          "type": "uint256"
        },
        {
          "internalType": "address",
          "name": "delegateAddress",
          "type": "address"
        },
        {
          "internalType": "uint256",
          "name": "delegatedWeight",
          "type": "uint256"
        },
        {
          "internalType": "uint256",
          "name": "totalVotingPower",
          "type": "uint256"
        }
      ],
      "stateMutability": "view",
      "type": "function",
      "constant": true
    },
    {
      "inputs": [],
      "name": "getTimeInfo",
      "outputs": [
        {
          "internalType": "uint256",
          "name": "currentTime",
          "type": "uint256"
        },
        {
          "internalType": "uint256",
          "name": "startTime",
          "type": "uint256"
        },
        {
          "internalType": "uint256",
          "name": "endTime",
          "type": "uint256"
        },
        {
          "internalType": "bool",
          "name": "isVotingActive",
          "type": "bool"
        }
      ],
      "stateMutability": "view",
      "type": "function",
      "constant": true
    },
    {
      "inputs": [],
      "name": "getVoterCount",
      "outputs": [
        {
          "internalType": "uint256",
          "name": "",
          "type": "uint256"
        }
      ],
      "stateMutability": "view",
      "type": "function",
      "constant": true
    },
    {
      "inputs": [
        {
          "internalType": "uint256",
          "name": "weight",
          "type": "uint256"
        }
      ],
      "name": "calculateQuadraticVotes",
      "outputs": [
        {
          "internalType": "uint256",
          "name": "",
          "type": "uint256"
        }
      ],
      "stateMutability": "pure",
      "type": "function",
      "constant": true
    },
    {
      "inputs": [
        {
          "internalType": "string",
          "name": "title",
          "type": "string"
        },
        {
          "internalType": "string",
          "name": "description",
          "type": "string"
        }
      ],
      "name": "addProposal",
      "outputs": [],
      "stateMutability": "nonpayable",
      "type": "function"
    },
    {
      "inputs": [
        {
          "internalType": "address",
          "name": "account",
          "type": "address"
        },
        {
          "internalType": "uint256",
          "name": "weight",
          "type": "uint256"
        }
      ],
      "name": "whitelistVoter",
      "outputs": [],
      "stateMutability": "nonpayable",
      "type": "function"
    },
    {
      "inputs": [
        {
          "internalType": "uint256",
          "name": "durationInMinutes",
          "type": "uint256"
        }
      ],
      "name": "startVoting",
      "outputs": [],
      "stateMutability": "nonpayable",
      "type": "function"
    },
    {
      "inputs": [],
      "name": "closeVoting",
      "outputs": [],
      "stateMutability": "nonpayable",
      "type": "function"
    },
    {
      "inputs": [],
      "name": "finalizeIfExpired",
      "outputs": [],
      "stateMutability": "nonpayable",
      "type": "function"
    },
    {
      "inputs": [],
      "name": "pauseElection",
      "outputs": [],
      "stateMutability": "nonpayable",
      "type": "function"
    },
    {
      "inputs": [],
      "name": "resumeElection",
      "outputs": [],
      "stateMutability": "nonpayable",
      "type": "function"
    },
    {
      "inputs": [
        {
          "internalType": "address",
          "name": "to",
          "type": "address"
        }
      ],
      "name": "delegate",
      "outputs": [],
      "stateMutability": "nonpayable",
      "type": "function"
    },
    {
      "inputs": [],
      "name": "removeDelegate",
      "outputs": [],
      "stateMutability": "nonpayable",
      "type": "function"
    },
    {
      "inputs": [
        {
          "internalType": "uint256",
          "name": "proposalId",
          "type": "uint256"
        }
      ],
      "name": "vote",
      "outputs": [],
      "stateMutability": "nonpayable",
      "type": "function"
    },
    {
      "inputs": [],
      "name": "winningProposal",
      "outputs": [
        {
          "internalType": "uint256",
          "name": "proposalId",
          "type": "uint256"
        },
        {
          "internalType": "string",
          "name": "title",
          "type": "string"
        },
        {
          "internalType": "uint256",
          "name": "quadraticVotes",
          "type": "uint256"
        },
        {
          "internalType": "uint256",
          "name": "rawVotes",
          "type": "uint256"
        }
      ],
      "stateMutability": "view",
      "type": "function",
      "constant": true
    },
    {
      "inputs": [],
      "name": "getAllResults",
      "outputs": [
        {
          "internalType": "string[]",
          "name": "titles",
          "type": "string[]"
        },
        {
          "internalType": "uint256[]",
          "name": "quadraticVotes",
          "type": "uint256[]"
        },
        {
          "internalType": "uint256[]",
          "name": "rawVotes",
          "type": "uint256[]"
        }
      ],
      "stateMutability": "view",
      "type": "function",
      "constant": true
    }
  ],
  "bytecode": "0x60a06040523480156200001157600080fd5b50604051620047fe380380620047fe8339818101604052810190620000379190620005f4565b60008060006101000a81548160ff0219169083151502179055503373ffffffffffffffffffffffffffffffffffffffff1660808173ffffffffffffffffffffffffffffffffffffffff168152505081600190805190602001906200009d929190620002ab565b506000600260006101000a81548160ff02191690836002811115620000c757620000c662000679565b5b021790555060005b81518110156200012d5762000117828281518110620000f357620000f2620006a8565b5b6020026020010151604051806020016040528060008152506200017160201b60201c565b8080620001249062000710565b915050620000cf565b507f979868a6ec4b771cce59fb848a1eb0e1dcca4c2215a7fdf8bd593ecf860b0cd682336040516200016192919062000800565b60405180910390a150506200096a565b6000825111620001b8576040517f08c379a0000000000000000000000000000000000000000000000000000000008152600401620001af9062000884565b60405180910390fd5b600560405180608001604052808481526020018381526020016000815260200160008152509080600181540180825580915050600190039060005260206000209060040201600090919091909150600082015181600001908051906020019062000224929190620002ab565b50602082015181600101908051906020019062000243929190620002ab565b506040820151816002015560608201518160030155505060016005805490506200026e9190620008a6565b7ff970aa486598017b8116c2beb18c50d4584ecbc3c688817f59b26796725f31bf836040516200029f9190620008e1565b60405180910390a25050565b828054620002b99062000934565b90600052602060002090601f016020900481019282620002dd576000855562000329565b82601f10620002f857805160ff191683800117855562000329565b8280016001018555821562000329579182015b82811115620003285782518255916020019190600101906200030b565b5b5090506200033891906200033c565b5090565b5b80821115620003575760008160009055506001016200033d565b5090565b6000604051905090565b600080fd5b600080fd5b600080fd5b600080fd5b6000601f19601f8301169050919050565b7f4e487b7100000000000000000000000000000000000000000000000000000000600052604160045260246000fd5b620003c48262000379565b810181811067ffffffffffffffff82111715620003e657620003e56200038a565b5b80604052505050565b6000620003fb6200035b565b9050620004098282620003b9565b919050565b600067ffffffffffffffff8211156200042c576200042b6200038a565b5b620004378262000379565b9050602081019050919050565b60005b838110156200046457808201518184015260208101905062000447565b8381111562000474576000848401525b50505050565b6000620004916200048b846200040e565b620003ef565b905082815260208101848484011115620004b057620004af62000374565b5b620004bd84828562000444565b509392505050565b600082601f830112620004dd57620004dc6200036f565b5b8151620004ef8482602086016200047a565b91505092915050565b600067ffffffffffffffff8211156200051657620005156200038a565b5b602082029050602081019050919050565b600080fd5b6000620005436200053d84620004f8565b620003ef565b9050808382526020820190506020840283018581111562000569576200056862000527565b5b835b81811015620005b757805167ffffffffffffffff8111156200059257620005916200036f565b5b808601620005a18982620004c5565b855260208501945050506020810190506200056b565b5050509392505050565b600082601f830112620005d957620005d86200036f565b5b8151620005eb8482602086016200052c565b91505092915050565b600080604083850312156200060e576200060d62000365565b5b600083015167ffffffffffffffff8111156200062f576200062e6200036a565b5b6200063d85828601620004c5565b925050602083015167ffffffffffffffff8111156200066157620006606200036a565b5b6200066f85828601620005c1565b9150509250929050565b7f4e487b7100000000000000000000000000000000000000000000000000000000600052602160045260246000fd5b7f4e487b7100000000000000000000000000000000000000000000000000000000600052603260045260246000fd5b7f4e487b7100000000000000000000000000000000000000000000000000000000600052601160045260246000fd5b6000819050919050565b60006200071d8262000706565b91507fffffffffffffffffffffffffffffffffffffffffffffffffffffffffffffffff821415620007535762000752620006d7565b5b600182019050919050565b600081519050919050565b600082825260208201905092915050565b600062000787826200075e565b62000793818562000769565b9350620007a581856020860162000444565b620007b08162000379565b840191505092915050565b600073ffffffffffffffffffffffffffffffffffffffff82169050919050565b6000620007e882620007bb565b9050919050565b620007fa81620007db565b82525050565b600060408201905081810360008301526200081c81856200077a565b90506200082d6020830184620007ef565b9392505050565b7f50726f706f73616c207469746c652063616e6e6f7420626520656d7074790000600082015250565b60006200086c601e8362000769565b9150620008798262000834565b602082019050919050565b600060208201905081810360008301526200089f816200085d565b9050919050565b6000620008b38262000706565b9150620008c08362000706565b925082821015620008d657620008d5620006d7565b5b828203905092915050565b60006020820190508181036000830152620008fd81846200077a565b905092915050565b7f4e487b7100000000000000000000000000000000000000000000000000000000600052602260045260246000fd5b600060028204905060018216806200094d57607f821691505b6020821081141562000964576200096362000905565b5b50919050565b608051613e47620009b76000396000818161084601528181610c420152818161189201528181611a5201528181611e88015281816122bf0152818161235701526123ef0152613e476000f3fe608060405234801561001057600080fd5b50600436106101585760003560e01c806376d9be08116100c3578063c7f758a81161007c578063c7f758a81461034d578063d4f50f9814610380578063da35c664146103b6578063e6eea09b146103d4578063e852a14b146103de578063f851a440146103e857610158565b806376d9be08146102c15780638373cab2146102e157806385e8e7a7146102fd578063b1c9fe6e1461031b578063b55e36ac14610339578063c631b2921461034357610158565b80633d2f5bda116101155780633d2f5bda146101f957806354ad3948146102155780635c19a95c146102455780635c975abb14610261578063609ff1bd1461027f5780636fe8022c146102a057610158565b80630121b93f1461015d57806311174a29146101795780631ea736e0146101975780632019a608146101b557806323d1c95e146101d357806336fb8b15146101ef575b600080fd5b61017760048036038101906101729190612814565b610406565b005b61018161082b565b60405161018e9190612850565b60405180910390f35b61019f610838565b6040516101ac9190612850565b60405180910390f35b6101bd61083e565b6040516101ca9190612850565b60405180910390f35b6101ed60048036038101906101e891906129b1565b610844565b005b6101f7610960565b005b610213600480360381019061020e9190612814565b610c40565b005b61022f600480360381019061022a9190612814565b610eb1565b60405161023c9190612850565b60405180910390f35b61025f600480360381019061025a9190612a87565b610f39565b005b6102696113c2565b6040516102769190612acf565b60405180910390f35b6102876113d8565b6040516102979493929190612b72565b60405180910390f35b6102a8611534565b6040516102b89493929190612bbe565b60405180910390f35b6102c96115a8565b6040516102d893929190612dcd565b60405180910390f35b6102fb60048036038101906102f69190612e19565b611890565b005b610305611c8b565b6040516103129190612e59565b60405180910390f35b610323611d19565b6040516103309190612ef2565b60405180910390f35b610341611d2c565b005b61034b611e86565b005b61036760048036038101906103629190612814565b61202a565b6040516103779493929190612f0d565b60405180910390f35b61039a60048036038101906103959190612a87565b6121d7565b6040516103ad9796959493929190612f6f565b60405180910390f35b6103be6122b0565b6040516103cb9190612850565b60405180910390f35b6103dc6122bd565b005b6103e6612355565b005b6103f06123ed565b6040516103fd9190612fde565b60405180910390f35b6001600281111561041a57610419612e7b565b5b600260009054906101000a900460ff16600281111561043c5761043b612e7b565b5b1461047c576040517f08c379a000000000000000000000000000000000000000000000000000000000815260040161047390613045565b60405180910390fd5b6003544210156104c1576040517f08c379a00000000000000000000000000000000000000000000000000000000081526004016104b8906130b1565b60405180910390fd5b600454421115610506576040517f08c379a00000000000000000000000000000000000000000000000000000000081526004016104fd9061311d565b60405180910390fd5b61050e612411565b6005805490508110610555576040517f08c379a000000000000000000000000000000000000000000000000000000000815260040161054c90613189565b60405180910390fd5b6000600660003373ffffffffffffffffffffffffffffffffffffffff1673ffffffffffffffffffffffffffffffffffffffff16815260200190815260200160002090508060000160009054906101000a900460ff166105e9576040517f08c379a00000000000000000000000000000000000000000000000000000000081526004016105e0906131f5565b60405180910390fd5b8060020160009054906101000a900460ff161561063b576040517f08c379a000000000000000000000000000000000000000000000000000000000815260040161063290613261565b60405180910390fd5b600073ffffffffffffffffffffffffffffffffffffffff168160040160009054906101000a900473ffffffffffffffffffffffffffffffffffffffff1673ffffffffffffffffffffffffffffffffffffffff16146106ce576040517f08c379a00000000000000000000000000000000000000000000000000000000081526004016106c5906132cd565b60405180910390fd5b6000816005015482600101546106e4919061331c565b905060008111610729576040517f08c379a0000000000000000000000000000000000000000000000000000000008152600401610720906133be565b60405180910390fd5b600061073482610eb1565b905060018360020160006101000a81548160ff0219169083151502179055508383600301819055508060058581548110610771576107706133de565b5b90600052602060002090600402016002016000828254610791919061331c565b9250508190555081600585815481106107ad576107ac6133de565b5b906000526020600020906004020160030160008282546107cd919061331c565b92505081905550833373ffffffffffffffffffffffffffffffffffffffff167fc32b42768a47a585121e9b8d7a2ab9d3f34c326a192dee11ee1732e3d18313f3838560405161081d92919061340d565b60405180910390a350505050565b6000600780549050905090565b60045481565b60035481565b7f000000000000000000000000000000000000000000000000000000000000000073ffffffffffffffffffffffffffffffffffffffff163373ffffffffffffffffffffffffffffffffffffffff16146108d2576040517f08c379a00000000000000000000000000000000000000000000000000000000081526004016108c9906134a8565b60405180910390fd5b60008060028111156108e7576108e6612e7b565b5b600260009054906101000a900460ff16600281111561090957610908612e7b565b5b14610949576040517f08c379a00000000000000000000000000000000000000000000000000000000081526004016109409061353a565b60405180910390fd5b610951612411565b61095b838361245b565b505050565b600080600281111561097557610974612e7b565b5b600260009054906101000a900460ff16600281111561099757610996612e7b565b5b146109d7576040517f08c379a00000000000000000000000000000000000000000000000000000000081526004016109ce9061353a565b60405180910390fd5b6109df612411565b6000600660003373ffffffffffffffffffffffffffffffffffffffff1673ffffffffffffffffffffffffffffffffffffffff16815260200190815260200160002090508060000160009054906101000a900460ff16610a73576040517f08c379a0000000000000000000000000000000000000000000000000000000008152600401610a6a906131f5565b60405180910390fd5b600073ffffffffffffffffffffffffffffffffffffffff168160040160009054906101000a900473ffffffffffffffffffffffffffffffffffffffff1673ffffffffffffffffffffffffffffffffffffffff161415610b07576040517f08c379a0000000000000000000000000000000000000000000000000000000008152600401610afe906135a6565b60405180910390fd5b6000600660008360040160009054906101000a900473ffffffffffffffffffffffffffffffffffffffff1673ffffffffffffffffffffffffffffffffffffffff1673ffffffffffffffffffffffffffffffffffffffff16815260200190815260200160002090508160010154816005016000828254610b8691906135c6565b92505081905550600073ffffffffffffffffffffffffffffffffffffffff163373ffffffffffffffffffffffffffffffffffffffff167ff5c2b450c3b6c4c3cc8c45e612ffa5ce51cda974e8b2ecaf58abda86d89658478460010154604051610bef9190612850565b60405180910390a360008260040160006101000a81548173ffffffffffffffffffffffffffffffffffffffff021916908373ffffffffffffffffffffffffffffffffffffffff160217905550505050565b7f000000000000000000000000000000000000000000000000000000000000000073ffffffffffffffffffffffffffffffffffffffff163373ffffffffffffffffffffffffffffffffffffffff1614610cce576040517f08c379a0000000000000000000000000000000000000000000000000000000008152600401610cc5906134a8565b60405180910390fd5b6000806002811115610ce357610ce2612e7b565b5b600260009054906101000a900460ff166002811115610d0557610d04612e7b565b5b14610d45576040517f08c379a0000000000000000000000000000000000000000000000000000000008152600401610d3c9061353a565b60405180910390fd5b610d4d612411565b600060058054905011610d95576040517f08c379a0000000000000000000000000000000000000000000000000000000008152600401610d8c90613646565b60405180910390fd5b600060078054905011610ddd576040517f08c379a0000000000000000000000000000000000000000000000000000000008152600401610dd4906136d8565b60405180910390fd5b60008211610e20576040517f08c379a0000000000000000000000000000000000000000000000000000000008152600401610e179061376a565b60405180910390fd5b6001600260006101000a81548160ff02191690836002811115610e4657610e45612e7b565b5b021790555042600381905550603c82610e5f919061378a565b42610e6a919061331c565b6004819055507ff8c022056754dbacca05aff710dc315a2fa7699ae9309fda403cd1e55c11d40f600354600454604051610ea592919061340d565b60405180910390a15050565b600080821415610ec45760009050610f34565b6001821415610ed65760019050610f34565b600082905060006002600183610eec919061331c565b610ef69190613813565b90505b81811015610f2e578091506002818286610f139190613813565b610f1d919061331c565b610f279190613813565b9050610ef9565b81925050505b919050565b6000806002811115610f4e57610f4d612e7b565b5b600260009054906101000a900460ff166002811115610f7057610f6f612e7b565b5b14610fb0576040517f08c379a0000000000000000000000000000000000000000000000000000000008152600401610fa79061353a565b60405180910390fd5b610fb8612411565b6000600660003373ffffffffffffffffffffffffffffffffffffffff1673ffffffffffffffffffffffffffffffffffffffff16815260200190815260200160002090508060000160009054906101000a900460ff1661104c576040517f08c379a0000000000000000000000000000000000000000000000000000000008152600401611043906131f5565b60405180910390fd5b8060020160009054906101000a900460ff161561109e576040517f08c379a000000000000000000000000000000000000000000000000000000000815260040161109590613261565b60405180910390fd5b3373ffffffffffffffffffffffffffffffffffffffff168373ffffffffffffffffffffffffffffffffffffffff16141561110d576040517f08c379a000000000000000000000000000000000000000000000000000000000815260040161110490613890565b60405180910390fd5b600073ffffffffffffffffffffffffffffffffffffffff168373ffffffffffffffffffffffffffffffffffffffff16141561117d576040517f08c379a0000000000000000000000000000000000000000000000000000000008152600401611174906138fc565b60405180910390fd5b6000600660008573ffffffffffffffffffffffffffffffffffffffff1673ffffffffffffffffffffffffffffffffffffffff16815260200190815260200160002090508060000160009054906101000a900460ff16611211576040517f08c379a00000000000000000000000000000000000000000000000000000000081526004016112089061398e565b60405180910390fd5b600073ffffffffffffffffffffffffffffffffffffffff168260040160009054906101000a900473ffffffffffffffffffffffffffffffffffffffff1673ffffffffffffffffffffffffffffffffffffffff16146112f1576000600660008460040160009054906101000a900473ffffffffffffffffffffffffffffffffffffffff1673ffffffffffffffffffffffffffffffffffffffff1673ffffffffffffffffffffffffffffffffffffffff168152602001908152602001600020905082600101548160050160008282546112e891906135c6565b92505081905550505b838260040160006101000a81548173ffffffffffffffffffffffffffffffffffffffff021916908373ffffffffffffffffffffffffffffffffffffffff160217905550816001015481600501600082825461134c919061331c565b925050819055508373ffffffffffffffffffffffffffffffffffffffff163373ffffffffffffffffffffffffffffffffffffffff167ff5c2b450c3b6c4c3cc8c45e612ffa5ce51cda974e8b2ecaf58abda86d896584784600101546040516113b49190612850565b60405180910390a350505050565b60008060009054906101000a900460ff16905090565b6000606060008060028060028111156113f4576113f3612e7b565b5b600260009054906101000a900460ff16600281111561141657611415612e7b565b5b14611456576040517f08c379a000000000000000000000000000000000000000000000000000000000815260040161144d9061353a565b60405180910390fd5b600061146061258a565b9050600060058281548110611478576114776133de565b5b906000526020600020906004020190508181600001826002015483600301548280546114a3906139dd565b80601f01602080910402602001604051908101604052809291908181526020018280546114cf906139dd565b801561151c5780601f106114f15761010080835404028352916020019161151c565b820191906000526020600020905b8154815290600101906020018083116114ff57829003601f168201915b50505050509250965096509650965050505090919293565b6000806000806000600160028111156115505761154f612e7b565b5b600260009054906101000a900460ff16600281111561157257611571612e7b565b5b14801561158157506003544210155b801561158f57506004544211155b9050426003546004548394509450945094505090919293565b606080606060028060028111156115c2576115c1612e7b565b5b600260009054906101000a900460ff1660028111156115e4576115e3612e7b565b5b14611624576040517f08c379a000000000000000000000000000000000000000000000000000000000815260040161161b9061353a565b60405180910390fd5b600060058054905090508067ffffffffffffffff81111561164857611647612886565b5b60405190808252806020026020018201604052801561167b57816020015b60608152602001906001900390816116665790505b5094508067ffffffffffffffff81111561169857611697612886565b5b6040519080825280602002602001820160405280156116c65781602001602082028036833780820191505090505b5093508067ffffffffffffffff8111156116e3576116e2612886565b5b6040519080825280602002602001820160405280156117115781602001602082028036833780820191505090505b50925060005b818110156118885760058181548110611733576117326133de565b5b9060005260206000209060040201600001805461174f906139dd565b80601f016020809104026020016040519081016040528092919081815260200182805461177b906139dd565b80156117c85780601f1061179d576101008083540402835291602001916117c8565b820191906000526020600020905b8154815290600101906020018083116117ab57829003601f168201915b50505050508682815181106117e0576117df6133de565b5b6020026020010181905250600581815481106117ff576117fe6133de565b5b906000526020600020906004020160020154858281518110611824576118236133de565b5b60200260200101818152505060058181548110611844576118436133de565b5b906000526020600020906004020160030154848281518110611869576118686133de565b5b602002602001018181525050808061188090613a0f565b915050611717565b505050909192565b7f000000000000000000000000000000000000000000000000000000000000000073ffffffffffffffffffffffffffffffffffffffff163373ffffffffffffffffffffffffffffffffffffffff161461191e576040517f08c379a0000000000000000000000000000000000000000000000000000000008152600401611915906134a8565b60405180910390fd5b600080600281111561193357611932612e7b565b5b600260009054906101000a900460ff16600281111561195557611954612e7b565b5b14611995576040517f08c379a000000000000000000000000000000000000000000000000000000000815260040161198c9061353a565b60405180910390fd5b61199d612411565b600073ffffffffffffffffffffffffffffffffffffffff168373ffffffffffffffffffffffffffffffffffffffff161415611a0d576040517f08c379a0000000000000000000000000000000000000000000000000000000008152600401611a0490613aa4565b60405180910390fd5b60008211611a50576040517f08c379a0000000000000000000000000000000000000000000000000000000008152600401611a4790613b10565b60405180910390fd5b7f000000000000000000000000000000000000000000000000000000000000000073ffffffffffffffffffffffffffffffffffffffff168373ffffffffffffffffffffffffffffffffffffffff161415611adf576040517f08c379a0000000000000000000000000000000000000000000000000000000008152600401611ad690613b7c565b60405180910390fd5b6000600660008573ffffffffffffffffffffffffffffffffffffffff1673ffffffffffffffffffffffffffffffffffffffff16815260200190815260200160002090508060000160009054906101000a900460ff16611b9c576007849080600181540180825580915050600190039060005260206000200160009091909190916101000a81548173ffffffffffffffffffffffffffffffffffffffff021916908373ffffffffffffffffffffffffffffffffffffffff1602179055505b60018160000160006101000a81548160ff02191690831515021790555082816001018190555060008160020160006101000a81548160ff0219169083151502179055506000816003018190555060008160040160006101000a81548173ffffffffffffffffffffffffffffffffffffffff021916908373ffffffffffffffffffffffffffffffffffffffff160217905550600081600501819055508373ffffffffffffffffffffffffffffffffffffffff167f66a8b13abe95391d1851f5bc319f3dde54ce8f2f40a5fe226aa3251d805832e384604051611c7d9190612850565b60405180910390a250505050565b60018054611c98906139dd565b80601f0160208091040260200160405190810160405280929190818152602001828054611cc4906139dd565b8015611d115780601f10611ce657610100808354040283529160200191611d11565b820191906000526020600020905b815481529060010190602001808311611cf457829003601f168201915b505050505081565b600260009054906101000a900460ff1681565b6001806002811115611d4157611d40612e7b565b5b600260009054906101000a900460ff166002811115611d6357611d62612e7b565b5b14611da3576040517f08c379a0000000000000000000000000000000000000000000000000000000008152600401611d9a9061353a565b60405180910390fd5b611dab612411565b6004544211611def576040517f08c379a0000000000000000000000000000000000000000000000000000000008152600401611de690613be8565b60405180910390fd5b60028060006101000a81548160ff02191690836002811115611e1457611e13612e7b565b5b02179055506000611e2361258a565b90507fa3227ce2555eb04e16ca713bb19edd3beed774c93bcdf4e971f7aa405c2ca2538160058381548110611e5b57611e5a6133de565b5b9060005260206000209060040201600001604051611e7a929190613c9d565b60405180910390a15050565b7f000000000000000000000000000000000000000000000000000000000000000073ffffffffffffffffffffffffffffffffffffffff163373ffffffffffffffffffffffffffffffffffffffff1614611f14576040517f08c379a0000000000000000000000000000000000000000000000000000000008152600401611f0b906134a8565b60405180910390fd5b6001806002811115611f2957611f28612e7b565b5b600260009054906101000a900460ff166002811115611f4b57611f4a612e7b565b5b14611f8b576040517f08c379a0000000000000000000000000000000000000000000000000000000008152600401611f829061353a565b60405180910390fd5b611f93612411565b60028060006101000a81548160ff02191690836002811115611fb857611fb7612e7b565b5b02179055506000611fc761258a565b90507fa3227ce2555eb04e16ca713bb19edd3beed774c93bcdf4e971f7aa405c2ca2538160058381548110611fff57611ffe6133de565b5b906000526020600020906004020160000160405161201e929190613c9d565b60405180910390a15050565b6060806000806005805490508510612077576040517f08c379a000000000000000000000000000000000000000000000000000000000815260040161206e90613189565b60405180910390fd5b60006005868154811061208d5761208c6133de565b5b906000526020600020906004020190508060000181600101826002015483600301548380546120bb906139dd565b80601f01602080910402602001604051908101604052809291908181526020018280546120e7906139dd565b80156121345780601f1061210957610100808354040283529160200191612134565b820191906000526020600020905b81548152906001019060200180831161211757829003601f168201915b50505050509350828054612147906139dd565b80601f0160208091040260200160405190810160405280929190818152602001828054612173906139dd565b80156121c05780601f10612195576101008083540402835291602001916121c0565b820191906000526020600020905b8154815290600101906020018083116121a357829003601f168201915b505050505092509450945094509450509193509193565b600080600080600080600080600660008a73ffffffffffffffffffffffffffffffffffffffff1673ffffffffffffffffffffffffffffffffffffffff168152602001908152602001600020905060008160050154826001015461223a919061331c565b90508160000160009054906101000a900460ff1682600101548360020160009054906101000a900460ff1684600301548560040160009054906101000a900473ffffffffffffffffffffffffffffffffffffffff1686600501548698509850985098509850985098505050919395979092949650565b6000600580549050905090565b7f000000000000000000000000000000000000000000000000000000000000000073ffffffffffffffffffffffffffffffffffffffff163373ffffffffffffffffffffffffffffffffffffffff161461234b576040517f08c379a0000000000000000000000000000000000000000000000000000000008152600401612342906134a8565b60405180910390fd5b612353612612565b565b7f000000000000000000000000000000000000000000000000000000000000000073ffffffffffffffffffffffffffffffffffffffff163373ffffffffffffffffffffffffffffffffffffffff16146123e3576040517f08c379a00000000000000000000000000000000000000000000000000000000081526004016123da906134a8565b60405180910390fd5b6123eb612674565b565b7f000000000000000000000000000000000000000000000000000000000000000081565b6124196113c2565b15612459576040517f08c379a000000000000000000000000000000000000000000000000000000000815260040161245090613d19565b60405180910390fd5b565b600082511161249f576040517f08c379a000000000000000000000000000000000000000000000000000000000815260040161249690613d85565b60405180910390fd5b6005604051806080016040528084815260200183815260200160008152602001600081525090806001815401808255809150506001900390600052602060002090600402016000909190919091506000820151816000019080519060200190612509929190612727565b506020820151816001019080519060200190612526929190612727565b5060408201518160020155606082015181600301555050600160058054905061254f91906135c6565b7ff970aa486598017b8116c2beb18c50d4584ecbc3c688817f59b26796725f31bf8360405161257e9190612e59565b60405180910390a25050565b6000806000905060005b60058054905081101561260d5781600582815481106125b6576125b56133de565b5b90600052602060002090600402016002015411156125fa57600581815481106125e2576125e16133de565b5b90600052602060002090600402016002015491508092505b808061260590613a0f565b915050612594565b505090565b61261a612411565b60016000806101000a81548160ff0219169083151502179055507f62e78cea01bee320cd4e420270b5ea74000d11b0c9f74754ebdbfc544b05a25861265d6126d6565b60405161266a9190612fde565b60405180910390a1565b61267c6126de565b60008060006101000a81548160ff0219169083151502179055507f5db9ee0a495bf2e6ff9c91a7834c1ba4fdd244a5e8aa4e537bd38aeae4b073aa6126bf6126d6565b6040516126cc9190612fde565b60405180910390a1565b600033905090565b6126e66113c2565b612725576040517f08c379a000000000000000000000000000000000000000000000000000000000815260040161271c90613df1565b60405180910390fd5b565b828054612733906139dd565b90600052602060002090601f016020900481019282612755576000855561279c565b82601f1061276e57805160ff191683800117855561279c565b8280016001018555821561279c579182015b8281111561279b578251825591602001919060010190612780565b5b5090506127a991906127ad565b5090565b5b808211156127c65760008160009055506001016127ae565b5090565b6000604051905090565b600080fd5b600080fd5b6000819050919050565b6127f1816127de565b81146127fc57600080fd5b50565b60008135905061280e816127e8565b92915050565b60006020828403121561282a576128296127d4565b5b6000612838848285016127ff565b91505092915050565b61284a816127de565b82525050565b60006020820190506128656000830184612841565b92915050565b600080fd5b600080fd5b6000601f19601f8301169050919050565b7f4e487b7100000000000000000000000000000000000000000000000000000000600052604160045260246000fd5b6128be82612875565b810181811067ffffffffffffffff821117156128dd576128dc612886565b5b80604052505050565b60006128f06127ca565b90506128fc82826128b5565b919050565b600067ffffffffffffffff82111561291c5761291b612886565b5b61292582612875565b9050602081019050919050565b82818337600083830152505050565b600061295461294f84612901565b6128e6565b9050828152602081018484840111156129705761296f612870565b5b61297b848285612932565b509392505050565b600082601f8301126129985761299761286b565b5b81356129a8848260208601612941565b91505092915050565b600080604083850312156129c8576129c76127d4565b5b600083013567ffffffffffffffff8111156129e6576129e56127d9565b5b6129f285828601612983565b925050602083013567ffffffffffffffff811115612a1357612a126127d9565b5b612a1f85828601612983565b9150509250929050565b600073ffffffffffffffffffffffffffffffffffffffff82169050919050565b6000612a5482612a29565b9050919050565b612a6481612a49565b8114612a6f57600080fd5b50565b600081359050612a8181612a5b565b92915050565b600060208284031215612a9d57612a9c6127d4565b5b6000612aab84828501612a72565b91505092915050565b60008115159050919050565b612ac981612ab4565b82525050565b6000602082019050612ae46000830184612ac0565b92915050565b600081519050919050565b600082825260208201905092915050565b60005b83811015612b24578082015181840152602081019050612b09565b83811115612b33576000848401525b50505050565b6000612b4482612aea565b612b4e8185612af5565b9350612b5e818560208601612b06565b612b6781612875565b840191505092915050565b6000608082019050612b876000830187612841565b8181036020830152612b998186612b39565b9050612ba86040830185612841565b612bb56060830184612841565b95945050505050565b6000608082019050612bd36000830187612841565b612be06020830186612841565b612bed6040830185612841565b612bfa6060830184612ac0565b95945050505050565b600081519050919050565b600082825260208201905092915050565b6000819050602082019050919050565b600082825260208201905092915050565b6000612c4b82612aea565b612c558185612c2f565b9350612c65818560208601612b06565b612c6e81612875565b840191505092915050565b6000612c858383612c40565b905092915050565b6000602082019050919050565b6000612ca582612c03565b612caf8185612c0e565b935083602082028501612cc185612c1f565b8060005b85811015612cfd5784840389528151612cde8582612c79565b9450612ce983612c8d565b925060208a01995050600181019050612cc5565b50829750879550505050505092915050565b600081519050919050565b600082825260208201905092915050565b6000819050602082019050919050565b612d44816127de565b82525050565b6000612d568383612d3b565b60208301905092915050565b6000602082019050919050565b6000612d7a82612d0f565b612d848185612d1a565b9350612d8f83612d2b565b8060005b83811015612dc0578151612da78882612d4a565b9750612db283612d62565b925050600181019050612d93565b5085935050505092915050565b60006060820190508181036000830152612de78186612c9a565b90508181036020830152612dfb8185612d6f565b90508181036040830152612e0f8184612d6f565b9050949350505050565b60008060408385031215612e3057612e2f6127d4565b5b6000612e3e85828601612a72565b9250506020612e4f858286016127ff565b9150509250929050565b60006020820190508181036000830152612e738184612b39565b905092915050565b7f4e487b7100000000000000000000000000000000000000000000000000000000600052602160045260246000fd5b60038110612ebb57612eba612e7b565b5b50565b6000819050612ecc82612eaa565b919050565b6000612edc82612ebe565b9050919050565b612eec81612ed1565b82525050565b6000602082019050612f076000830184612ee3565b92915050565b60006080820190508181036000830152612f278187612b39565b90508181036020830152612f3b8186612b39565b9050612f4a6040830185612841565b612f576060830184612841565b95945050505050565b612f6981612a49565b82525050565b600060e082019050612f84600083018a612ac0565b612f916020830189612841565b612f9e6040830188612ac0565b612fab6060830187612841565b612fb86080830186612f60565b612fc560a0830185612841565b612fd260c0830184612841565b98975050505050505050565b6000602082019050612ff36000830184612f60565b92915050565b7f566f74696e67206973206e6f7420616374697665000000000000000000000000600082015250565b600061302f601483612af5565b915061303a82612ff9565b602082019050919050565b6000602082019050818103600083015261305e81613022565b9050919050565b7f566f74696e6720686173206e6f74207374617274656420796574000000000000600082015250565b600061309b601a83612af5565b91506130a682613065565b602082019050919050565b600060208201905081810360008301526130ca8161308e565b9050919050565b7f566f74696e6720706572696f642068617320656e646564000000000000000000600082015250565b6000613107601783612af5565b9150613112826130d1565b602082019050919050565b60006020820190508181036000830152613136816130fa565b9050919050565b7f496e76616c69642070726f706f73616c20494400000000000000000000000000600082015250565b6000613173601383612af5565b915061317e8261313d565b602082019050919050565b600060208201905081810360008301526131a281613166565b9050919050565b7f596f7520617265206e6f7420612077686974656c697374656420766f74657200600082015250565b60006131df601f83612af5565b91506131ea826131a9565b602082019050919050565b6000602082019050818103600083015261320e816131d2565b9050919050565b7f596f75206861766520616c726561647920766f74656400000000000000000000600082015250565b600061324b601683612af5565b915061325682613215565b602082019050919050565b6000602082019050818103600083015261327a8161323e565b9050919050565b7f596f7520686176652064656c65676174656420796f757220766f746500000000600082015250565b60006132b7601c83612af5565b91506132c282613281565b602082019050919050565b600060208201905081810360008301526132e6816132aa565b9050919050565b7f4e487b7100000000000000000000000000000000000000000000000000000000600052601160045260246000fd5b6000613327826127de565b9150613332836127de565b9250827fffffffffffffffffffffffffffffffffffffffffffffffffffffffffffffffff03821115613367576133666132ed565b5b828201905092915050565b7f4e6f20766f74696e6720706f7765720000000000000000000000000000000000600082015250565b60006133a8600f83612af5565b91506133b382613372565b602082019050919050565b600060208201905081810360008301526133d78161339b565b9050919050565b7f4e487b7100000000000000000000000000000000000000000000000000000000600052603260045260246000fd5b60006040820190506134226000830185612841565b61342f6020830184612841565b9392505050565b7f4f6e6c792061646d696e2063616e20706572666f726d2074686973206163746960008201527f6f6e000000000000000000000000000000000000000000000000000000000000602082015250565b6000613492602283612af5565b915061349d82613436565b604082019050919050565b600060208201905081810360008301526134c181613485565b9050919050565b7f416374696f6e206e6f7420616c6c6f77656420696e2063757272656e7420706860008201527f6173650000000000000000000000000000000000000000000000000000000000602082015250565b6000613524602383612af5565b915061352f826134c8565b604082019050919050565b6000602082019050818103600083015261355381613517565b9050919050565b7f596f752068617665206e6f742064656c65676174656400000000000000000000600082015250565b6000613590601683612af5565b915061359b8261355a565b602082019050919050565b600060208201905081810360008301526135bf81613583565b9050919050565b60006135d1826127de565b91506135dc836127de565b9250828210156135ef576135ee6132ed565b5b828203905092915050565b7f416464206174206c65617374206f6e652070726f706f73616c20666972737400600082015250565b6000613630601f83612af5565b915061363b826135fa565b602082019050919050565b6000602082019050818103600083015261365f81613623565b9050919050565b7f57686974656c697374206174206c65617374206f6e6520766f7465722066697260008201527f7374000000000000000000000000000000000000000000000000000000000000602082015250565b60006136c2602283612af5565b91506136cd82613666565b604082019050919050565b600060208201905081810360008301526136f1816136b5565b9050919050565b7f4475726174696f6e206d7573742062652067726561746572207468616e207a6560008201527f726f000000000000000000000000000000000000000000000000000000000000602082015250565b6000613754602283612af5565b915061375f826136f8565b604082019050919050565b6000602082019050818103600083015261378381613747565b9050919050565b6000613795826127de565b91506137a0836127de565b9250817fffffffffffffffffffffffffffffffffffffffffffffffffffffffffffffffff04831182151516156137d9576137d86132ed565b5b828202905092915050565b7f4e487b7100000000000000000000000000000000000000000000000000000000600052601260045260246000fd5b600061381e826127de565b9150613829836127de565b925082613839576138386137e4565b5b828204905092915050565b7f43616e6e6f742064656c656761746520746f20796f757273656c660000000000600082015250565b600061387a601b83612af5565b915061388582613844565b602082019050919050565b600060208201905081810360008301526138a98161386d565b9050919050565b7f43616e6e6f742064656c656761746520746f207a65726f206164647265737300600082015250565b60006138e6601f83612af5565b91506138f1826138b0565b602082019050919050565b60006020820190508181036000830152613915816138d9565b9050919050565b7f44656c6567617465206973206e6f7420612077686974656c697374656420766f60008201527f7465720000000000000000000000000000000000000000000000000000000000602082015250565b6000613978602383612af5565b91506139838261391c565b604082019050919050565b600060208201905081810360008301526139a78161396b565b9050919050565b7f4e487b7100000000000000000000000000000000000000000000000000000000600052602260045260246000fd5b600060028204905060018216806139f557607f821691505b60208210811415613a0957613a086139ae565b5b50919050565b6000613a1a826127de565b91507fffffffffffffffffffffffffffffffffffffffffffffffffffffffffffffffff821415613a4d57613a4c6132ed565b5b600182019050919050565b7f43616e6e6f742077686974656c697374207a65726f2061646472657373000000600082015250565b6000613a8e601d83612af5565b9150613a9982613a58565b602082019050919050565b60006020820190508181036000830152613abd81613a81565b9050919050565b7f576569676874206d7573742062652067726561746572207468616e207a65726f600082015250565b6000613afa602083612af5565b9150613b0582613ac4565b602082019050919050565b60006020820190508181036000830152613b2981613aed565b9050919050565b7f41646d696e2063616e6e6f74206265206120766f746572000000000000000000600082015250565b6000613b66601783612af5565b9150613b7182613b30565b602082019050919050565b60006020820190508181036000830152613b9581613b59565b9050919050565b7f566f74696e6720706572696f64206e6f742079657420656e6465640000000000600082015250565b6000613bd2601b83612af5565b9150613bdd82613b9c565b602082019050919050565b60006020820190508181036000830152613c0181613bc5565b9050919050565b60008190508160005260206000209050919050565b60008154613c2a816139dd565b613c348186612af5565b94506001821660008114613c4f5760018114613c6157613c94565b60ff1983168652602086019350613c94565b613c6a85613c08565b60005b83811015613c8c57815481890152600182019150602081019050613c6d565b808801955050505b50505092915050565b6000604082019050613cb26000830185612841565b8181036020830152613cc48184613c1d565b90509392505050565b7f5061757361626c653a2070617573656400000000000000000000000000000000600082015250565b6000613d03601083612af5565b9150613d0e82613ccd565b602082019050919050565b60006020820190508181036000830152613d3281613cf6565b9050919050565b7f50726f706f73616c207469746c652063616e6e6f7420626520656d7074790000600082015250565b6000613d6f601e83612af5565b9150613d7a82613d39565b602082019050919050565b60006020820190508181036000830152613d9e81613d62565b9050919050565b7f5061757361626c653a206e6f7420706175736564000000000000000000000000600082015250565b6000613ddb601483612af5565b9150613de682613da5565b602082019050919050565b60006020820190508181036000830152613e0a81613dce565b905091905056fea2646970667358221220057c8a66ef3e74a83ab95a3656c2edadc77c5e8d5f6d6550a97e7cf674f7295564736f6c634300080b0033",
  "immutableReferences": {
    "184": [
      {
        "length": 32,
        "start": 2118
      },
      {
        "length": 32,
        "start": 3138
      },
      {
        "length": 32,
        "start": 6290
      },
      {
        "length": 32,
        "start": 6738
      },
      {
        "length": 32,
        "start": 7816
      },
      {
        "length": 32,
        "start": 8895
      },
      {
        "length": 32,
        "start": 9047
      },
      {
        "length": 32,
        "start": 9199
      }
    ]
  },
  "source": "// SPDX-License-Identifier: MIT\r\npragma solidity ^0.8.11;\r\n\r\nimport \"@openzeppelin/contracts/security/Pausable.sol\";\r\n\r\n/**\r\n * @title GovernanceVoting\r\n * @notice A governance voting system with:\r\n *   - Voter Delegation: Voters can delegate their voting power to another voter\r\n *   - Time-Based Voting: Voting starts and ends automatically based on timestamps\r\n *   - Quadratic Voting: Vote power = sqrt(weight), preventing whale dominance\r\n */\r\ncontract GovernanceVoting is Pausable {\r\n    \r\n    // ============ DATA STRUCTURES ============\r\n    \r\n    struct Proposal {\r\n        string title;\r\n        string description;\r\n        uint256 voteCount;      // Total quadratic votes received\r\n        uint256 rawVoteCount;   // Total raw weight (for comparison display)\r\n    }\r\n\r\n    struct Voter {\r\n        bool whitelisted;\r\n        uint256 weight;           // Voting credits (tokens)\r\n        bool voted;\r\n        uint256 votedProposalId;\r\n        address delegate;         // Who this voter delegated to (address(0) if none)\r\n        uint256 delegatedWeight;  // Extra weight received from delegators\r\n    }\r\n\r\n    enum Phase {\r\n        Setup,      // Admin adds proposals and whitelists voters\r\n        Voting,     // Voters cast ballots (time-based)\r\n        Finished    // Voting closed, results available\r\n    }\r\n\r\n    // ============ STATE VARIABLES ============\r\n    \r\n    address public immutable admin;\r\n    string public electionName;\r\n    Phase public phase;\r\n    \r\n    // Time-based voting\r\n    uint256 public votingStartTime;\r\n    uint256 public votingEndTime;\r\n    \r\n    // Proposals and voters\r\n    Proposal[] private _proposals;\r\n    mapping(address => Voter) private _voters;\r\n    address[] private _voterAddresses; // Track all whitelisted addresses\r\n    \r\n    // ============ EVENTS ============\r\n    \r\n    event ElectionCreated(string name, address admin);\r\n    event ProposalAdded(uint256 indexed proposalId, string title);\r\n    event VoterWhitelisted(address indexed account, uint256 weight);\r\n    event VoteDelegated(address indexed from, address indexed to, uint256 weight);\r\n    event Voted(address indexed account, uint256 indexed proposalId, uint256 quadraticVotes, uint256 rawWeight);\r\n    event VotingStarted(uint256 startTime, uint256 endTime);\r\n    event VotingEnded(uint256 winningProposalId, string winningTitle);\r\n    \r\n    // ============ MODIFIERS ============\r\n    \r\n    modifier onlyAdmin() {\r\n        require(msg.sender == admin, \"Only admin can perform this action\");\r\n        _;\r\n    }\r\n\r\n    modifier inPhase(Phase expected) {\r\n        require(phase == expected, \"Action not allowed in current phase\");\r\n        _;\r\n    }\r\n    \r\n    modifier votingOpen() {\r\n        require(phase == Phase.Voting, \"Voting is not active\");\r\n        require(block.timestamp >= votingStartTime, \"Voting has not started yet\");\r\n        require(block.timestamp <= votingEndTime, \"Voting period has ended\");\r\n        _;\r\n    }\r\n\r\n    // ============ CONSTRUCTOR ============\r\n    \r\n    constructor(string memory _electionName, string[] memory proposalTitles) {\r\n        admin = msg.sender;\r\n        electionName = _electionName;\r\n        phase = Phase.Setup;\r\n        \r\n        // Add initial proposals\r\n        for (uint256 i = 0; i < proposalTitles.length; i++) {\r\n            _addProposal(proposalTitles[i], \"\");\r\n        }\r\n        \r\n        emit ElectionCreated(_electionName, msg.sender);\r\n    }\r\n\r\n    // ============ VIEW FUNCTIONS ============\r\n    \r\n    function proposalCount() external view returns (uint256) {\r\n        return _proposals.length;\r\n    }\r\n\r\n    function getProposal(uint256 proposalId) external view returns (\r\n        string memory title,\r\n        string memory description,\r\n        uint256 quadraticVotes,\r\n        uint256 rawVotes\r\n    ) {\r\n        require(proposalId < _proposals.length, \"Invalid proposal ID\");\r\n        Proposal storage prop = _proposals[proposalId];\r\n        return (prop.title, prop.description, prop.voteCount, prop.rawVoteCount);\r\n    }\r\n\r\n    function getVoter(address account) external view returns (\r\n        bool whitelisted,\r\n        uint256 weight,\r\n        bool voted,\r\n        uint256 votedProposalId,\r\n        address delegateAddress,\r\n        uint256 delegatedWeight,\r\n        uint256 totalVotingPower\r\n    ) {\r\n        Voter storage voter = _voters[account];\r\n        uint256 total = voter.weight + voter.delegatedWeight;\r\n        return (\r\n            voter.whitelisted,\r\n            voter.weight,\r\n            voter.voted,\r\n            voter.votedProposalId,\r\n            voter.delegate,\r\n            voter.delegatedWeight,\r\n            total\r\n        );\r\n    }\r\n    \r\n    function getTimeInfo() external view returns (\r\n        uint256 currentTime,\r\n        uint256 startTime,\r\n        uint256 endTime,\r\n        bool isVotingActive\r\n    ) {\r\n        bool active = phase == Phase.Voting && \r\n                      block.timestamp >= votingStartTime && \r\n                      block.timestamp <= votingEndTime;\r\n        return (block.timestamp, votingStartTime, votingEndTime, active);\r\n    }\r\n    \r\n    function getVoterCount() external view returns (uint256) {\r\n        return _voterAddresses.length;\r\n    }\r\n\r\n    // Calculate quadratic vote power: sqrt(weight)\r\n    // We use integer square root for simplicity\r\n    function calculateQuadraticVotes(uint256 weight) public pure returns (uint256) {\r\n        if (weight == 0) return 0;\r\n        if (weight == 1) return 1;\r\n        \r\n        // Babylonian method for integer square root\r\n        uint256 x = weight;\r\n        uint256 y = (x + 1) / 2;\r\n        while (y < x) {\r\n            x = y;\r\n            y = (weight / y + y) / 2;\r\n        }\r\n        return x;\r\n    }\r\n\r\n    // ============ ADMIN FUNCTIONS ============\r\n    \r\n    function addProposal(string memory title, string memory description) \r\n        external \r\n        onlyAdmin \r\n        inPhase(Phase.Setup) \r\n        whenNotPaused \r\n    {\r\n        _addProposal(title, description);\r\n    }\r\n\r\n    function _addProposal(string memory title, string memory description) private {\r\n        require(bytes(title).length > 0, \"Proposal title cannot be empty\");\r\n        _proposals.push(Proposal({\r\n            title: title,\r\n            description: description,\r\n            voteCount: 0,\r\n            rawVoteCount: 0\r\n        }));\r\n        emit ProposalAdded(_proposals.length - 1, title);\r\n    }\r\n\r\n    function whitelistVoter(address account, uint256 weight) \r\n        external \r\n        onlyAdmin \r\n        inPhase(Phase.Setup) \r\n        whenNotPaused \r\n    {\r\n        require(account != address(0), \"Cannot whitelist zero address\");\r\n        require(weight > 0, \"Weight must be greater than zero\");\r\n        require(account != admin, \"Admin cannot be a voter\");\r\n        \r\n        Voter storage voter = _voters[account];\r\n        \r\n        // If new voter, add to list\r\n        if (!voter.whitelisted) {\r\n            _voterAddresses.push(account);\r\n        }\r\n        \r\n        voter.whitelisted = true;\r\n        voter.weight = weight;\r\n        voter.voted = false;\r\n        voter.votedProposalId = 0;\r\n        voter.delegate = address(0);\r\n        voter.delegatedWeight = 0;\r\n        \r\n        emit VoterWhitelisted(account, weight);\r\n    }\r\n\r\n    function startVoting(uint256 durationInMinutes) \r\n        external \r\n        onlyAdmin \r\n        inPhase(Phase.Setup) \r\n        whenNotPaused \r\n    {\r\n        require(_proposals.length > 0, \"Add at least one proposal first\");\r\n        require(_voterAddresses.length > 0, \"Whitelist at least one voter first\");\r\n        require(durationInMinutes > 0, \"Duration must be greater than zero\");\r\n        \r\n        phase = Phase.Voting;\r\n        votingStartTime = block.timestamp;\r\n        votingEndTime = block.timestamp + (durationInMinutes * 1 minutes);\r\n        \r\n        emit VotingStarted(votingStartTime, votingEndTime);\r\n    }\r\n\r\n    function closeVoting() external onlyAdmin inPhase(Phase.Voting) whenNotPaused {\r\n        phase = Phase.Finished;\r\n        \r\n        uint256 winnerId = _calculateWinner();\r\n        emit VotingEnded(winnerId, _proposals[winnerId].title);\r\n    }\r\n    \r\n    // Auto-close if time expired (anyone can call)\r\n    function finalizeIfExpired() external inPhase(Phase.Voting) whenNotPaused {\r\n        require(block.timestamp > votingEndTime, \"Voting period not yet ended\");\r\n        \r\n        phase = Phase.Finished;\r\n        \r\n        uint256 winnerId = _calculateWinner();\r\n        emit VotingEnded(winnerId, _proposals[winnerId].title);\r\n    }\r\n\r\n    /**\r\n     * @notice Emergency circuit breaker controls\r\n     */\r\n    function pauseElection() external onlyAdmin {\r\n        _pause();\r\n    }\r\n\r\n    function resumeElection() external onlyAdmin {\r\n        _unpause();\r\n    }\r\n\r\n    // ============ VOTER FUNCTIONS ============\r\n    \r\n    /**\r\n     * @notice Delegate your voting power to another whitelisted voter\r\n     * @param to The address to delegate to\r\n     */\r\n    function delegate(address to) external inPhase(Phase.Setup) whenNotPaused {\r\n        Voter storage sender = _voters[msg.sender];\r\n        require(sender.whitelisted, \"You are not a whitelisted voter\");\r\n        require(!sender.voted, \"You have already voted\");\r\n        require(to != msg.sender, \"Cannot delegate to yourself\");\r\n        require(to != address(0), \"Cannot delegate to zero address\");\r\n        \r\n        Voter storage delegateTo = _voters[to];\r\n        require(delegateTo.whitelisted, \"Delegate is not a whitelisted voter\");\r\n        \r\n        // Remove previous delegation if exists\r\n        if (sender.delegate != address(0)) {\r\n            Voter storage oldDelegate = _voters[sender.delegate];\r\n            oldDelegate.delegatedWeight -= sender.weight;\r\n        }\r\n        \r\n        // Set new delegation\r\n        sender.delegate = to;\r\n        delegateTo.delegatedWeight += sender.weight;\r\n        \r\n        emit VoteDelegated(msg.sender, to, sender.weight);\r\n    }\r\n    \r\n    /**\r\n     * @notice Remove your delegation and reclaim voting power\r\n     */\r\n    function removeDelegate() external inPhase(Phase.Setup) whenNotPaused {\r\n        Voter storage sender = _voters[msg.sender];\r\n        require(sender.whitelisted, \"You are not a whitelisted voter\");\r\n        require(sender.delegate != address(0), \"You have not delegated\");\r\n        \r\n        Voter storage oldDelegate = _voters[sender.delegate];\r\n        oldDelegate.delegatedWeight -= sender.weight;\r\n        \r\n        emit VoteDelegated(msg.sender, address(0), sender.weight);\r\n        sender.delegate = address(0);\r\n    }\r\n\r\n    /**\r\n     * @notice Cast your vote using quadratic voting\r\n     * @param proposalId The proposal to vote for\r\n     */\r\n    function vote(uint256 proposalId) external votingOpen whenNotPaused {\r\n        require(proposalId < _proposals.length, \"Invalid proposal ID\");\r\n        \r\n        Voter storage voter = _voters[msg.sender];\r\n        require(voter.whitelisted, \"You are not a whitelisted voter\");\r\n        require(!voter.voted, \"You have already voted\");\r\n        require(voter.delegate == address(0), \"You have delegated your vote\");\r\n        \r\n        // Calculate total voting power (own weight + delegated weight)\r\n        uint256 totalWeight = voter.weight + voter.delegatedWeight;\r\n        require(totalWeight > 0, \"No voting power\");\r\n        \r\n        // Calculate quadratic votes\r\n        uint256 quadraticVotes = calculateQuadraticVotes(totalWeight);\r\n        \r\n        // Record vote\r\n        voter.voted = true;\r\n        voter.votedProposalId = proposalId;\r\n        \r\n        // Add votes to proposal\r\n        _proposals[proposalId].voteCount += quadraticVotes;\r\n        _proposals[proposalId].rawVoteCount += totalWeight;\r\n        \r\n        emit Voted(msg.sender, proposalId, quadraticVotes, totalWeight);\r\n    }\r\n\r\n    // ============ RESULTS ============\r\n    \r\n    function _calculateWinner() private view returns (uint256 winningId) {\r\n        uint256 highestVotes = 0;\r\n        for (uint256 i = 0; i < _proposals.length; i++) {\r\n            if (_proposals[i].voteCount > highestVotes) {\r\n                highestVotes = _proposals[i].voteCount;\r\n                winningId = i;\r\n            }\r\n        }\r\n    }\r\n\r\n    function winningProposal() external view inPhase(Phase.Finished) returns (\r\n        uint256 proposalId,\r\n        string memory title,\r\n        uint256 quadraticVotes,\r\n        uint256 rawVotes\r\n    ) {\r\n        uint256 winnerId = _calculateWinner();\r\n        Proposal storage winner = _proposals[winnerId];\r\n        return (winnerId, winner.title, winner.voteCount, winner.rawVoteCount);\r\n    }\r\n    \r\n    function getAllResults() external view inPhase(Phase.Finished) returns (\r\n        string[] memory titles,\r\n        uint256[] memory quadraticVotes,\r\n        uint256[] memory rawVotes\r\n    ) {\r\n        uint256 len = _proposals.length;\r\n        titles = new string[](len);\r\n        quadraticVotes = new uint256[](len);\r\n        rawVotes = new uint256[](len);\r\n        \r\n        for (uint256 i = 0; i < len; i++) {\r\n            titles[i] = _proposals[i].title;\r\n            quadraticVotes[i] = _proposals[i].voteCount;\r\n            rawVotes[i] = _proposals[i].rawVoteCount;\r\n        }\r\n    }\r\n}\r\n",
  "sourcePath": "C:\\Users\\Administrator\\DvotingAPP\\elect\\contracts\\GovernanceVoting.sol",
  "compiler": {
    "name": "solc",
    "version": "0.8.11+commit.d7f03943.Emscripten.clang"
  },
  "schemaVersion": "3.4.16",
  "updatedAt": "2025-12-02T18:24:04.746Z",
  "networkType": "ethereum",
  "devdoc": {
    "kind": "dev",
    "methods": {
      "delegate(address)": {
        "params": {
          "to": "The address to delegate to"
        }
      },
      "paused()": {
        "details": "Returns true if the contract is paused, and false otherwise."
      },
      "vote(uint256)": {
        "params": {
          "proposalId": "The proposal to vote for"
        }
      }
    },
    "title": "GovernanceVoting",
    "version": 1
  },
  "userdoc": {
    "kind": "user",
    "methods": {
      "delegate(address)": {
        "notice": "Delegate your voting power to another whitelisted voter"
      },
      "pauseElection()": {
        "notice": "Emergency circuit breaker controls"
      },
      "removeDelegate()": {
        "notice": "Remove your delegation and reclaim voting power"
      },
      "vote(uint256)": {
        "notice": "Cast your vote using quadratic voting"
      }
    },
    "notice": "A governance voting system with:   - Voter Delegation: Voters can delegate their voting power to another voter   - Time-Based Voting: Voting starts and ends automatically based on timestamps   - Quadratic Voting: Vote power = sqrt(weight), preventing whale dominance",
    "version": 1
  }
}