{
  "contractName": "WeightedElection",
  "abi": [
    {
      "inputs": [
        {
          "internalType": "string[]",
          "name": "proposalTitles",
          "type": "string[]"
        }
      ],
      "stateMutability": "nonpayable",
      "type": "constructor"
    },
    {
      "anonymous": false,
      "inputs": [
        {
          "indexed": false,
          "internalType": "enum WeightedElection.Phase",
          "name": "newPhase",
          "type": "uint8"
        }
      ],
      "name": "PhaseAdvanced",
      "type": "event"
    },
    {
      "anonymous": false,
      "inputs": [
        {
          "indexed": true,
          "internalType": "uint256",
          "name": "proposalId",
          "type": "uint256"
        },
        {
          "indexed": false,
          "internalType": "string",
          "name": "title",
          "type": "string"
        }
      ],
      "name": "ProposalAdded",
      "type": "event"
    },
    {
      "anonymous": false,
      "inputs": [
        {
          "indexed": true,
          "internalType": "address",
          "name": "account",
          "type": "address"
        },
        {
          "indexed": true,
          "internalType": "uint256",
          "name": "proposalId",
          "type": "uint256"
        },
        {
          "indexed": false,
          "internalType": "uint256",
          "name": "weight",
          "type": "uint256"
        }
      ],
      "name": "Voted",
      "type": "event"
    },
    {
      "anonymous": false,
      "inputs": [
        {
          "indexed": true,
          "internalType": "address",
          "name": "account",
          "type": "address"
        },
        {
          "indexed": false,
          "internalType": "uint256",
          "name": "weight",
          "type": "uint256"
        }
      ],
      "name": "VoterWhitelisted",
      "type": "event"
    },
    {
      "inputs": [],
      "name": "admin",
      "outputs": [
        {
          "internalType": "address",
          "name": "",
          "type": "address"
        }
      ],
      "stateMutability": "view",
      "type": "function",
      "constant": true
    },
    {
      "inputs": [],
      "name": "phase",
      "outputs": [
        {
          "internalType": "enum WeightedElection.Phase",
          "name": "",
          "type": "uint8"
        }
      ],
      "stateMutability": "view",
      "type": "function",
      "constant": true
    },
    {
      "inputs": [],
      "name": "proposalCount",
      "outputs": [
        {
          "internalType": "uint256",
          "name": "",
          "type": "uint256"
        }
      ],
      "stateMutability": "view",
      "type": "function",
      "constant": true
    },
    {
      "inputs": [
        {
          "internalType": "uint256",
          "name": "proposalId",
          "type": "uint256"
        }
      ],
      "name": "getProposal",
      "outputs": [
        {
          "internalType": "string",
          "name": "title",
          "type": "string"
        },
        {
          "internalType": "uint256",
          "name": "votes",
          "type": "uint256"
        }
      ],
      "stateMutability": "view",
      "type": "function",
      "constant": true
    },
    {
      "inputs": [
        {
          "internalType": "address",
          "name": "account",
          "type": "address"
        }
      ],
      "name": "getVoter",
      "outputs": [
        {
          "internalType": "bool",
          "name": "whitelisted",
          "type": "bool"
        },
        {
          "internalType": "uint256",
          "name": "weight",
          "type": "uint256"
        },
        {
          "internalType": "bool",
          "name": "voted",
          "type": "bool"
        },
        {
          "internalType": "uint256",
          "name": "selectedProposal",
          "type": "uint256"
        }
      ],
      "stateMutability": "view",
      "type": "function",
      "constant": true
    },
    {
      "inputs": [
        {
          "internalType": "string",
          "name": "title",
          "type": "string"
        }
      ],
      "name": "addProposal",
      "outputs": [],
      "stateMutability": "nonpayable",
      "type": "function"
    },
    {
      "inputs": [
        {
          "internalType": "address",
          "name": "account",
          "type": "address"
        },
        {
          "internalType": "uint256",
          "name": "weight",
          "type": "uint256"
        }
      ],
      "name": "whitelistVoter",
      "outputs": [],
      "stateMutability": "nonpayable",
      "type": "function"
    },
    {
      "inputs": [],
      "name": "startVoting",
      "outputs": [],
      "stateMutability": "nonpayable",
      "type": "function"
    },
    {
      "inputs": [],
      "name": "closeVoting",
      "outputs": [],
      "stateMutability": "nonpayable",
      "type": "function"
    },
    {
      "inputs": [
        {
          "internalType": "uint256",
          "name": "proposalId",
          "type": "uint256"
        }
      ],
      "name": "vote",
      "outputs": [],
      "stateMutability": "nonpayable",
      "type": "function"
    },
    {
      "inputs": [],
      "name": "winningProposal",
      "outputs": [
        {
          "internalType": "uint256",
          "name": "winningId",
          "type": "uint256"
        }
      ],
      "stateMutability": "view",
      "type": "function",
      "constant": true
    }
  ],
  "bytecode": "0x60a06040523480156200001157600080fd5b506040516200225d3803806200225d83398181016040528101906200003791906200053c565b3373ffffffffffffffffffffffffffffffffffffffff1660808173ffffffffffffffffffffffffffffffffffffffff168152505060008060006101000a81548160ff021916908360028111156200009357620000926200058d565b5b021790555060005b8151811015620000e957620000d3828281518110620000bf57620000be620005bc565b5b6020026020010151620000f160201b60201c565b8080620000e09062000624565b9150506200009b565b505062000805565b600081511162000138576040517f08c379a00000000000000000000000000000000000000000000000000000000081526004016200012f90620006d3565b60405180910390fd5b6001604051806040016040528083815260200160008152509080600181540180825580915050600190039060005260206000209060020201600090919091909150600082015181600001908051906020019062000197929190620001f3565b5060208201518160010155505060018080549050620001b79190620006f5565b7ff970aa486598017b8116c2beb18c50d4584ecbc3c688817f59b26796725f31bf82604051620001e891906200077c565b60405180910390a250565b8280546200020190620007cf565b90600052602060002090601f01602090048101928262000225576000855562000271565b82601f106200024057805160ff191683800117855562000271565b8280016001018555821562000271579182015b828111156200027057825182559160200191906001019062000253565b5b50905062000280919062000284565b5090565b5b808211156200029f57600081600090555060010162000285565b5090565b6000604051905090565b600080fd5b600080fd5b600080fd5b6000601f19601f8301169050919050565b7f4e487b7100000000000000000000000000000000000000000000000000000000600052604160045260246000fd5b6200030782620002bc565b810181811067ffffffffffffffff82111715620003295762000328620002cd565b5b80604052505050565b60006200033e620002a3565b90506200034c8282620002fc565b919050565b600067ffffffffffffffff8211156200036f576200036e620002cd565b5b602082029050602081019050919050565b600080fd5b600080fd5b600067ffffffffffffffff821115620003a857620003a7620002cd565b5b620003b382620002bc565b9050602081019050919050565b60005b83811015620003e0578082015181840152602081019050620003c3565b83811115620003f0576000848401525b50505050565b60006200040d62000407846200038a565b62000332565b9050828152602081018484840111156200042c576200042b62000385565b5b62000439848285620003c0565b509392505050565b600082601f830112620004595762000458620002b7565b5b81516200046b848260208601620003f6565b91505092915050565b60006200048b620004858462000351565b62000332565b90508083825260208201905060208402830185811115620004b157620004b062000380565b5b835b81811015620004ff57805167ffffffffffffffff811115620004da57620004d9620002b7565b5b808601620004e9898262000441565b85526020850194505050602081019050620004b3565b5050509392505050565b600082601f830112620005215762000520620002b7565b5b81516200053384826020860162000474565b91505092915050565b600060208284031215620005555762000554620002ad565b5b600082015167ffffffffffffffff811115620005765762000575620002b2565b5b620005848482850162000509565b91505092915050565b7f4e487b7100000000000000000000000000000000000000000000000000000000600052602160045260246000fd5b7f4e487b7100000000000000000000000000000000000000000000000000000000600052603260045260246000fd5b7f4e487b7100000000000000000000000000000000000000000000000000000000600052601160045260246000fd5b6000819050919050565b600062000631826200061a565b91507fffffffffffffffffffffffffffffffffffffffffffffffffffffffffffffffff821415620006675762000666620005eb565b5b600182019050919050565b600082825260208201905092915050565b7f456d707479207469746c65000000000000000000000000000000000000000000600082015250565b6000620006bb600b8362000672565b9150620006c88262000683565b602082019050919050565b60006020820190508181036000830152620006ee81620006ac565b9050919050565b600062000702826200061a565b91506200070f836200061a565b925082821015620007255762000724620005eb565b5b828203905092915050565b600081519050919050565b6000620007488262000730565b62000754818562000672565b935062000766818560208601620003c0565b6200077181620002bc565b840191505092915050565b600060208201905081810360008301526200079881846200073b565b905092915050565b7f4e487b7100000000000000000000000000000000000000000000000000000000600052602260045260246000fd5b60006002820490506001821680620007e857607f821691505b60208210811415620007ff57620007fe620007a0565b5b50919050565b608051611a206200083d60003960008181610454015281816106100152818161081a01528181610ac50152610ddd0152611a206000f3fe608060405234801561001057600080fd5b50600436106100a95760003560e01c8063b1c9fe6e11610071578063b1c9fe6e1461012a578063c631b29214610148578063c7f758a814610152578063d4f50f9814610183578063da35c664146101b6578063f851a440146101d4576100a9565b80630121b93f146100ae5780631ec6b60a146100ca5780632fdae3c5146100d4578063609ff1bd146100f05780638373cab21461010e575b600080fd5b6100c860048036038101906100c39190610fe5565b6101f2565b005b6100d2610452565b005b6100ee60048036038101906100e99190611158565b61060e565b005b6100f861071e565b60405161010591906111b0565b60405180910390f35b61012860048036038101906101239190611229565b610818565b005b610132610ab2565b60405161013f91906112e0565b60405180910390f35b610150610ac3565b005b61016c60048036038101906101679190610fe5565b610c37565b60405161017a929190611383565b60405180910390f35b61019d600480360381019061019891906113b3565b610d47565b6040516101ad94939291906113fb565b60405180910390f35b6101be610dce565b6040516101cb91906111b0565b60405180910390f35b6101dc610ddb565b6040516101e9919061144f565b60405180910390f35b600180600281111561020757610206611269565b5b60008054906101000a900460ff16600281111561022757610226611269565b5b14610267576040517f08c379a000000000000000000000000000000000000000000000000000000000815260040161025e906114b6565b60405180910390fd5b60018054905082106102ae576040517f08c379a00000000000000000000000000000000000000000000000000000000081526004016102a590611522565b60405180910390fd5b6000600260003373ffffffffffffffffffffffffffffffffffffffff1673ffffffffffffffffffffffffffffffffffffffff16815260200190815260200160002090508060000160009054906101000a900460ff16610342576040517f08c379a00000000000000000000000000000000000000000000000000000000081526004016103399061158e565b60405180910390fd5b8060020160009054906101000a900460ff1615610394576040517f08c379a000000000000000000000000000000000000000000000000000000000815260040161038b906115fa565b60405180910390fd5b60018160020160006101000a81548160ff0219169083151502179055508281600301819055508060010154600184815481106103d3576103d261161a565b5b906000526020600020906002020160010160008282546103f39190611678565b92505081905550823373ffffffffffffffffffffffffffffffffffffffff167fea66f58e474bc09f580000e81f31b334d171db387d0c6098ba47bd897741679b836001015460405161044591906111b0565b60405180910390a3505050565b7f000000000000000000000000000000000000000000000000000000000000000073ffffffffffffffffffffffffffffffffffffffff163373ffffffffffffffffffffffffffffffffffffffff16146104e0576040517f08c379a00000000000000000000000000000000000000000000000000000000081526004016104d79061171a565b60405180910390fd5b60008060028111156104f5576104f4611269565b5b60008054906101000a900460ff16600281111561051557610514611269565b5b14610555576040517f08c379a000000000000000000000000000000000000000000000000000000000815260040161054c906114b6565b60405180910390fd5b60006001805490501161059d576040517f08c379a000000000000000000000000000000000000000000000000000000000815260040161059490611786565b60405180910390fd5b60016000806101000a81548160ff021916908360028111156105c2576105c1611269565b5b02179055507fd0e47a271d69b0e6e3f9bd81c7c695bfbcb309e6ee66a23e6ad80a8f9019057460008054906101000a900460ff1660405161060391906112e0565b60405180910390a150565b7f000000000000000000000000000000000000000000000000000000000000000073ffffffffffffffffffffffffffffffffffffffff163373ffffffffffffffffffffffffffffffffffffffff161461069c576040517f08c379a00000000000000000000000000000000000000000000000000000000081526004016106939061171a565b60405180910390fd5b60008060028111156106b1576106b0611269565b5b60008054906101000a900460ff1660028111156106d1576106d0611269565b5b14610711576040517f08c379a0000000000000000000000000000000000000000000000000000000008152600401610708906114b6565b60405180910390fd5b61071a82610dff565b5050565b6000600280600281111561073557610734611269565b5b60008054906101000a900460ff16600281111561075557610754611269565b5b14610795576040517f08c379a000000000000000000000000000000000000000000000000000000000815260040161078c906114b6565b60405180910390fd5b6000805b6001805490508110156108125781600182815481106107bb576107ba61161a565b5b90600052602060002090600202016001015411156107ff57600181815481106107e7576107e661161a565b5b90600052602060002090600202016001015491508093505b808061080a906117a6565b915050610799565b50505090565b7f000000000000000000000000000000000000000000000000000000000000000073ffffffffffffffffffffffffffffffffffffffff163373ffffffffffffffffffffffffffffffffffffffff16146108a6576040517f08c379a000000000000000000000000000000000000000000000000000000000815260040161089d9061171a565b60405180910390fd5b60008060028111156108bb576108ba611269565b5b60008054906101000a900460ff1660028111156108db576108da611269565b5b1461091b576040517f08c379a0000000000000000000000000000000000000000000000000000000008152600401610912906114b6565b60405180910390fd5b600073ffffffffffffffffffffffffffffffffffffffff168373ffffffffffffffffffffffffffffffffffffffff16141561098b576040517f08c379a00000000000000000000000000000000000000000000000000000000081526004016109829061183b565b60405180910390fd5b600082116109ce576040517f08c379a00000000000000000000000000000000000000000000000000000000081526004016109c5906118a7565b60405180910390fd5b6000600260008573ffffffffffffffffffffffffffffffffffffffff1673ffffffffffffffffffffffffffffffffffffffff168152602001908152602001600020905060018160000160006101000a81548160ff02191690831515021790555082816001018190555060008160020160006101000a81548160ff021916908315150217905550600081600301819055508373ffffffffffffffffffffffffffffffffffffffff167f66a8b13abe95391d1851f5bc319f3dde54ce8f2f40a5fe226aa3251d805832e384604051610aa491906111b0565b60405180910390a250505050565b60008054906101000a900460ff1681565b7f000000000000000000000000000000000000000000000000000000000000000073ffffffffffffffffffffffffffffffffffffffff163373ffffffffffffffffffffffffffffffffffffffff1614610b51576040517f08c379a0000000000000000000000000000000000000000000000000000000008152600401610b489061171a565b60405180910390fd5b6001806002811115610b6657610b65611269565b5b60008054906101000a900460ff166002811115610b8657610b85611269565b5b14610bc6576040517f08c379a0000000000000000000000000000000000000000000000000000000008152600401610bbd906114b6565b60405180910390fd5b60026000806101000a81548160ff02191690836002811115610beb57610bea611269565b5b02179055507fd0e47a271d69b0e6e3f9bd81c7c695bfbcb309e6ee66a23e6ad80a8f9019057460008054906101000a900460ff16604051610c2c91906112e0565b60405180910390a150565b606060006001805490508310610c82576040517f08c379a0000000000000000000000000000000000000000000000000000000008152600401610c7990611522565b60405180910390fd5b600060018481548110610c9857610c9761161a565b5b90600052602060002090600202019050806000018160010154818054610cbd906118f6565b80601f0160208091040260200160405190810160405280929190818152602001828054610ce9906118f6565b8015610d365780601f10610d0b57610100808354040283529160200191610d36565b820191906000526020600020905b815481529060010190602001808311610d1957829003601f168201915b505050505091509250925050915091565b6000806000806000600260008773ffffffffffffffffffffffffffffffffffffffff1673ffffffffffffffffffffffffffffffffffffffff16815260200190815260200160002090508060000160009054906101000a900460ff1681600101548260020160009054906101000a900460ff1683600301549450945094509450509193509193565b6000600180549050905090565b7f000000000000000000000000000000000000000000000000000000000000000081565b6000815111610e43576040517f08c379a0000000000000000000000000000000000000000000000000000000008152600401610e3a90611974565b60405180910390fd5b60016040518060400160405280838152602001600081525090806001815401808255809150506001900390600052602060002090600202016000909190919091506000820151816000019080519060200190610ea0929190610ef8565b5060208201518160010155505060018080549050610ebe9190611994565b7ff970aa486598017b8116c2beb18c50d4584ecbc3c688817f59b26796725f31bf82604051610eed91906119c8565b60405180910390a250565b828054610f04906118f6565b90600052602060002090601f016020900481019282610f265760008555610f6d565b82601f10610f3f57805160ff1916838001178555610f6d565b82800160010185558215610f6d579182015b82811115610f6c578251825591602001919060010190610f51565b5b509050610f7a9190610f7e565b5090565b5b80821115610f97576000816000905550600101610f7f565b5090565b6000604051905090565b600080fd5b600080fd5b6000819050919050565b610fc281610faf565b8114610fcd57600080fd5b50565b600081359050610fdf81610fb9565b92915050565b600060208284031215610ffb57610ffa610fa5565b5b600061100984828501610fd0565b91505092915050565b600080fd5b600080fd5b6000601f19601f8301169050919050565b7f4e487b7100000000000000000000000000000000000000000000000000000000600052604160045260246000fd5b6110658261101c565b810181811067ffffffffffffffff821117156110845761108361102d565b5b80604052505050565b6000611097610f9b565b90506110a3828261105c565b919050565b600067ffffffffffffffff8211156110c3576110c261102d565b5b6110cc8261101c565b9050602081019050919050565b82818337600083830152505050565b60006110fb6110f6846110a8565b61108d565b90508281526020810184848401111561111757611116611017565b5b6111228482856110d9565b509392505050565b600082601f83011261113f5761113e611012565b5b813561114f8482602086016110e8565b91505092915050565b60006020828403121561116e5761116d610fa5565b5b600082013567ffffffffffffffff81111561118c5761118b610faa565b5b6111988482850161112a565b91505092915050565b6111aa81610faf565b82525050565b60006020820190506111c560008301846111a1565b92915050565b600073ffffffffffffffffffffffffffffffffffffffff82169050919050565b60006111f6826111cb565b9050919050565b611206816111eb565b811461121157600080fd5b50565b600081359050611223816111fd565b92915050565b600080604083850312156112405761123f610fa5565b5b600061124e85828601611214565b925050602061125f85828601610fd0565b9150509250929050565b7f4e487b7100000000000000000000000000000000000000000000000000000000600052602160045260246000fd5b600381106112a9576112a8611269565b5b50565b60008190506112ba82611298565b919050565b60006112ca826112ac565b9050919050565b6112da816112bf565b82525050565b60006020820190506112f560008301846112d1565b92915050565b600081519050919050565b600082825260208201905092915050565b60005b8381101561133557808201518184015260208101905061131a565b83811115611344576000848401525b50505050565b6000611355826112fb565b61135f8185611306565b935061136f818560208601611317565b6113788161101c565b840191505092915050565b6000604082019050818103600083015261139d818561134a565b90506113ac60208301846111a1565b9392505050565b6000602082840312156113c9576113c8610fa5565b5b60006113d784828501611214565b91505092915050565b60008115159050919050565b6113f5816113e0565b82525050565b600060808201905061141060008301876113ec565b61141d60208301866111a1565b61142a60408301856113ec565b61143760608301846111a1565b95945050505050565b611449816111eb565b82525050565b60006020820190506114646000830184611440565b92915050565b7f57726f6e67207068617365000000000000000000000000000000000000000000600082015250565b60006114a0600b83611306565b91506114ab8261146a565b602082019050919050565b600060208201905081810360008301526114cf81611493565b9050919050565b7f496e76616c69642070726f706f73616c00000000000000000000000000000000600082015250565b600061150c601083611306565b9150611517826114d6565b602082019050919050565b6000602082019050818103600083015261153b816114ff565b9050919050565b7f4e6f742077686974656c69737465640000000000000000000000000000000000600082015250565b6000611578600f83611306565b915061158382611542565b602082019050919050565b600060208201905081810360008301526115a78161156b565b9050919050565b7f416c726561647920766f74656400000000000000000000000000000000000000600082015250565b60006115e4600d83611306565b91506115ef826115ae565b602082019050919050565b60006020820190508181036000830152611613816115d7565b9050919050565b7f4e487b7100000000000000000000000000000000000000000000000000000000600052603260045260246000fd5b7f4e487b7100000000000000000000000000000000000000000000000000000000600052601160045260246000fd5b600061168382610faf565b915061168e83610faf565b9250827fffffffffffffffffffffffffffffffffffffffffffffffffffffffffffffffff038211156116c3576116c2611649565b5b828201905092915050565b7f4f6e6c792061646d696e00000000000000000000000000000000000000000000600082015250565b6000611704600a83611306565b915061170f826116ce565b602082019050919050565b60006020820190508181036000830152611733816116f7565b9050919050565b7f4e6f2070726f706f73616c730000000000000000000000000000000000000000600082015250565b6000611770600c83611306565b915061177b8261173a565b602082019050919050565b6000602082019050818103600083015261179f81611763565b9050919050565b60006117b182610faf565b91507fffffffffffffffffffffffffffffffffffffffffffffffffffffffffffffffff8214156117e4576117e3611649565b5b600182019050919050565b7f5a65726f20616464726573730000000000000000000000000000000000000000600082015250565b6000611825600c83611306565b9150611830826117ef565b602082019050919050565b6000602082019050818103600083015261185481611818565b9050919050565b7f5a65726f20776569676874000000000000000000000000000000000000000000600082015250565b6000611891600b83611306565b915061189c8261185b565b602082019050919050565b600060208201905081810360008301526118c081611884565b9050919050565b7f4e487b7100000000000000000000000000000000000000000000000000000000600052602260045260246000fd5b6000600282049050600182168061190e57607f821691505b60208210811415611922576119216118c7565b5b50919050565b7f456d707479207469746c65000000000000000000000000000000000000000000600082015250565b600061195e600b83611306565b915061196982611928565b602082019050919050565b6000602082019050818103600083015261198d81611951565b9050919050565b600061199f82610faf565b91506119aa83610faf565b9250828210156119bd576119bc611649565b5b828203905092915050565b600060208201905081810360008301526119e2818461134a565b90509291505056fea264697066735822122053e5f5c49d896c3dc276a49a687449b670ff5a0556112c4dc15b7c1adfbd436664736f6c634300080b0033",
  "immutableReferences": {
    "1369": [
      {
        "length": 32,
        "start": 1108
      },
      {
        "length": 32,
        "start": 1552
      },
      {
        "length": 32,
        "start": 2074
      },
      {
        "length": 32,
        "start": 2757
      },
      {
        "length": 32,
        "start": 3549
      }
    ]
  },
  "source": "// SPDX-License-Identifier: MIT\r\npragma solidity ^0.8.11;\r\n\r\ncontract WeightedElection {\r\n    struct Proposal {\r\n        string title;\r\n        uint256 voteCount;\r\n    }\r\n\r\n    struct Voter {\r\n        bool whitelisted;\r\n        uint256 weight;\r\n        bool voted;\r\n        uint256 vote;\r\n    }\r\n\r\n    enum Phase {\r\n        Setup,\r\n        Voting,\r\n        Finished\r\n    }\r\n\r\n    address public immutable admin;\r\n    Phase public phase;\r\n    Proposal[] private _proposals;\r\n    mapping(address => Voter) private _voters;\r\n\r\n    event ProposalAdded(uint256 indexed proposalId, string title);\r\n    event VoterWhitelisted(address indexed account, uint256 weight);\r\n    event Voted(address indexed account, uint256 indexed proposalId, uint256 weight);\r\n    event PhaseAdvanced(Phase newPhase);\r\n\r\n    modifier onlyAdmin() {\r\n        require(msg.sender == admin, \"Only admin\");\r\n        _;\r\n    }\r\n\r\n    modifier inPhase(Phase expected) {\r\n        require(phase == expected, \"Wrong phase\");\r\n        _;\r\n    }\r\n\r\n    constructor(string[] memory proposalTitles) {\r\n        admin = msg.sender;\r\n        phase = Phase.Setup;\r\n        for (uint256 i = 0; i < proposalTitles.length; i++) {\r\n            _addProposal(proposalTitles[i]);\r\n        }\r\n    }\r\n\r\n    function proposalCount() external view returns (uint256) {\r\n        return _proposals.length;\r\n    }\r\n\r\n    function getProposal(uint256 proposalId) external view returns (string memory title, uint256 votes) {\r\n        require(proposalId < _proposals.length, \"Invalid proposal\");\r\n        Proposal storage prop = _proposals[proposalId];\r\n        return (prop.title, prop.voteCount);\r\n    }\r\n\r\n    function getVoter(address account)\r\n        external\r\n        view\r\n        returns (bool whitelisted, uint256 weight, bool voted, uint256 selectedProposal)\r\n    {\r\n        Voter storage voter = _voters[account];\r\n        return (voter.whitelisted, voter.weight, voter.voted, voter.vote);\r\n    }\r\n\r\n    function addProposal(string memory title) external onlyAdmin inPhase(Phase.Setup) {\r\n        _addProposal(title);\r\n    }\r\n\r\n    function _addProposal(string memory title) private {\r\n        require(bytes(title).length > 0, \"Empty title\");\r\n        _proposals.push(Proposal({title: title, voteCount: 0}));\r\n        emit ProposalAdded(_proposals.length - 1, title);\r\n    }\r\n\r\n    function whitelistVoter(address account, uint256 weight) external onlyAdmin inPhase(Phase.Setup) {\r\n        require(account != address(0), \"Zero address\");\r\n        require(weight > 0, \"Zero weight\");\r\n        Voter storage voter = _voters[account];\r\n        voter.whitelisted = true;\r\n        voter.weight = weight;\r\n        voter.voted = false;\r\n        voter.vote = 0;\r\n        emit VoterWhitelisted(account, weight);\r\n    }\r\n\r\n    function startVoting() external onlyAdmin inPhase(Phase.Setup) {\r\n        require(_proposals.length > 0, \"No proposals\");\r\n        phase = Phase.Voting;\r\n        emit PhaseAdvanced(phase);\r\n    }\r\n\r\n    function closeVoting() external onlyAdmin inPhase(Phase.Voting) {\r\n        phase = Phase.Finished;\r\n        emit PhaseAdvanced(phase);\r\n    }\r\n\r\n    function vote(uint256 proposalId) external inPhase(Phase.Voting) {\r\n        require(proposalId < _proposals.length, \"Invalid proposal\");\r\n        Voter storage voter = _voters[msg.sender];\r\n        require(voter.whitelisted, \"Not whitelisted\");\r\n        require(!voter.voted, \"Already voted\");\r\n\r\n        voter.voted = true;\r\n        voter.vote = proposalId;\r\n        _proposals[proposalId].voteCount += voter.weight;\r\n\r\n        emit Voted(msg.sender, proposalId, voter.weight);\r\n    }\r\n\r\n    function winningProposal() external view inPhase(Phase.Finished) returns (uint256 winningId) {\r\n        uint256 highestVotes = 0;\r\n        for (uint256 i = 0; i < _proposals.length; i++) {\r\n            if (_proposals[i].voteCount > highestVotes) {\r\n                highestVotes = _proposals[i].voteCount;\r\n                winningId = i;\r\n            }\r\n        }\r\n    }\r\n}\r\n",
  "sourcePath": "C:\\Users\\Administrator\\DvotingAPP\\elect\\contracts\\WeightedElection.sol",
  "compiler": {
    "name": "solc",
    "version": "0.8.11+commit.d7f03943.Emscripten.clang"
  },
  "schemaVersion": "3.4.16",
  "updatedAt": "2025-12-02T18:24:03.693Z",
  "networkType": "ethereum",
  "devdoc": {
    "kind": "dev",
    "methods": {},
    "version": 1
  },
  "userdoc": {
    "kind": "user",
    "methods": {},
    "version": 1
  }
}